{
  "_format": "hh-sol-artifact-1",
  "contractName": "Shop",
  "sourceName": "contracts/Shop.sol",
  "abi": [
    {
      "inputs": [],
      "stateMutability": "nonpayable",
      "type": "constructor"
    },
    {
      "anonymous": false,
      "inputs": [
        {
          "indexed": false,
          "internalType": "int256",
          "name": "id",
          "type": "int256"
        },
        {
          "indexed": false,
          "internalType": "address",
          "name": "from",
          "type": "address"
        },
        {
          "indexed": false,
          "internalType": "uint256",
          "name": "total",
          "type": "uint256"
        },
        {
          "indexed": false,
          "internalType": "int256",
          "name": "time",
          "type": "int256"
        }
      ],
      "name": "ToPay",
      "type": "event"
    },
    {
      "anonymous": false,
      "inputs": [
        {
          "indexed": false,
          "internalType": "uint256",
          "name": "total",
          "type": "uint256"
        },
        {
          "indexed": false,
          "internalType": "string",
          "name": "target",
          "type": "string"
        },
        {
          "indexed": false,
          "internalType": "int256",
          "name": "time",
          "type": "int256"
        }
      ],
      "name": "ToSend",
      "type": "event"
    },
    {
      "inputs": [
        {
          "internalType": "int256",
          "name": "id",
          "type": "int256"
        }
      ],
      "name": "backMoney",
      "outputs": [
        {
          "internalType": "string",
          "name": "",
          "type": "string"
        }
      ],
      "stateMutability": "nonpayable",
      "type": "function"
    },
    {
      "inputs": [],
      "name": "balanceOf",
      "outputs": [
        {
          "internalType": "uint256",
          "name": "",
          "type": "uint256"
        }
      ],
      "stateMutability": "view",
      "type": "function"
    },
    {
      "inputs": [
        {
          "internalType": "int256",
          "name": "id",
          "type": "int256"
        }
      ],
      "name": "pay",
      "outputs": [],
      "stateMutability": "payable",
      "type": "function"
    },
    {
      "inputs": [],
      "name": "send_all",
      "outputs": [],
      "stateMutability": "nonpayable",
      "type": "function"
    },
    {
      "inputs": [
        {
          "internalType": "uint256",
          "name": "value",
          "type": "uint256"
        }
      ],
      "name": "to_send",
      "outputs": [],
      "stateMutability": "nonpayable",
      "type": "function"
    },
    {
      "inputs": [
        {
          "internalType": "int256",
          "name": "id",
          "type": "int256"
        }
      ],
      "name": "transaction",
      "outputs": [
        {
          "components": [
            {
              "internalType": "int256",
              "name": "id",
              "type": "int256"
            },
            {
              "internalType": "address",
              "name": "from",
              "type": "address"
            },
            {
              "internalType": "uint256",
              "name": "total",
              "type": "uint256"
            },
            {
              "internalType": "int256",
              "name": "time",
              "type": "int256"
            }
          ],
          "internalType": "struct Shop.Payment",
          "name": "",
          "type": "tuple"
        }
      ],
      "stateMutability": "view",
      "type": "function"
    }
  ],
  "bytecode": "0x608060405234801561001057600080fd5b50336000806101000a81548173ffffffffffffffffffffffffffffffffffffffff021916908373ffffffffffffffffffffffffffffffffffffffff160217905550610c66806100606000396000f3fe6080604052600436106100555760003560e01c806307cb2d751461005a5780632193cdba14610097578063722713f7146100ae578063c5fc77bf146100d9578063d6c9cf9014610102578063e1457faf1461013f575b600080fd5b34801561006657600080fd5b50610081600480360381019061007c91906107c6565b61015b565b60405161008e9190610883565b60405180910390f35b3480156100a357600080fd5b506100ac610333565b005b3480156100ba57600080fd5b506100c3610469565b6040516100d091906108be565b60405180910390f35b3480156100e557600080fd5b5061010060048036038101906100fb9190610905565b610471565b005b34801561010e57600080fd5b50610129600480360381019061012491906107c6565b6105a2565b60405161013691906109e6565b60405180910390f35b610159600480360381019061015491906107c6565b610643565b005b60603373ffffffffffffffffffffffffffffffffffffffff1660008054906101000a900473ffffffffffffffffffffffffffffffffffffffff1673ffffffffffffffffffffffffffffffffffffffff16146101eb576040517f08c379a00000000000000000000000000000000000000000000000000000000081526004016101e290610a4d565b60405180910390fd5b60006101f6836105a2565b90506000610202610469565b90508082604001511061024a576040517f08c379a000000000000000000000000000000000000000000000000000000000815260040161024190610ab9565b60405180910390fd5b600082602001519050600160008681526020019081526020016000206000808201600090556001820160006101000a81549073ffffffffffffffffffffffffffffffffffffffff02191690556002820160009055600382016000905550508073ffffffffffffffffffffffffffffffffffffffff166108fc84604001519081150290604051600060405180830381858888f193505050501580156102f2573d6000803e3d6000fd5b506040518060400160405280600281526020017f6f6b0000000000000000000000000000000000000000000000000000000000008152509350505050919050565b3373ffffffffffffffffffffffffffffffffffffffff1660008054906101000a900473ffffffffffffffffffffffffffffffffffffffff1673ffffffffffffffffffffffffffffffffffffffff16036103c1576040517f08c379a00000000000000000000000000000000000000000000000000000000081526004016103b890610b25565b60405180910390fd5b60004790507f9182d0d980be49b7a83210a5ebef5acd99931488ad53607e98527fa23f8e0a2b81426040516103f7929190610ba0565b60405180910390a160008054906101000a900473ffffffffffffffffffffffffffffffffffffffff1673ffffffffffffffffffffffffffffffffffffffff166108fc829081150290604051600060405180830381858888f19350505050158015610465573d6000803e3d6000fd5b5050565b600047905090565b3373ffffffffffffffffffffffffffffffffffffffff1660008054906101000a900473ffffffffffffffffffffffffffffffffffffffff1673ffffffffffffffffffffffffffffffffffffffff16036104ff576040517f08c379a00000000000000000000000000000000000000000000000000000000081526004016104f690610b25565b60405180910390fd5b7f9182d0d980be49b7a83210a5ebef5acd99931488ad53607e98527fa23f8e0a2b8142604051610530929190610ba0565b60405180910390a160008054906101000a900473ffffffffffffffffffffffffffffffffffffffff1673ffffffffffffffffffffffffffffffffffffffff166108fc829081150290604051600060405180830381858888f1935050505015801561059e573d6000803e3d6000fd5b5050565b6105aa61074d565b60016000838152602001908152602001600020604051806080016040529081600082015481526020016001820160009054906101000a900473ffffffffffffffffffffffffffffffffffffffff1673ffffffffffffffffffffffffffffffffffffffff1673ffffffffffffffffffffffffffffffffffffffff168152602001600282015481526020016003820154815250509050919050565b6000339050600034905060004290507f551b11895d5bb630ed46268308636d2c125a772e97c8a5e564805977feda339d848484846040516106879493929190610beb565b60405180910390a1600060405180608001604052808681526020018573ffffffffffffffffffffffffffffffffffffffff16815260200184815260200183815250905080600160008781526020019081526020016000206000820151816000015560208201518160010160006101000a81548173ffffffffffffffffffffffffffffffffffffffff021916908373ffffffffffffffffffffffffffffffffffffffff16021790555060408201518160020155606082015181600301559050505050505050565b604051806080016040528060008152602001600073ffffffffffffffffffffffffffffffffffffffff16815260200160008152602001600081525090565b600080fd5b6000819050919050565b6107a381610790565b81146107ae57600080fd5b50565b6000813590506107c08161079a565b92915050565b6000602082840312156107dc576107db61078b565b5b60006107ea848285016107b1565b91505092915050565b600081519050919050565b600082825260208201905092915050565b60005b8381101561082d578082015181840152602081019050610812565b60008484015250505050565b6000601f19601f8301169050919050565b6000610855826107f3565b61085f81856107fe565b935061086f81856020860161080f565b61087881610839565b840191505092915050565b6000602082019050818103600083015261089d818461084a565b905092915050565b6000819050919050565b6108b8816108a5565b82525050565b60006020820190506108d360008301846108af565b92915050565b6108e2816108a5565b81146108ed57600080fd5b50565b6000813590506108ff816108d9565b92915050565b60006020828403121561091b5761091a61078b565b5b6000610929848285016108f0565b91505092915050565b61093b81610790565b82525050565b600073ffffffffffffffffffffffffffffffffffffffff82169050919050565b600061096c82610941565b9050919050565b61097c81610961565b82525050565b61098b816108a5565b82525050565b6080820160008201516109a76000850182610932565b5060208201516109ba6020850182610973565b5060408201516109cd6040850182610982565b5060608201516109e06060850182610932565b50505050565b60006080820190506109fb6000830184610991565b92915050565b7f666f7272626974656e0000000000000000000000000000000000000000000000600082015250565b6000610a376009836107fe565b9150610a4282610a01565b602082019050919050565b60006020820190508181036000830152610a6681610a2a565b9050919050565b7f4e6f7420656e6f756768206d6f6e657900000000000000000000000000000000600082015250565b6000610aa36010836107fe565b9150610aae82610a6d565b602082019050919050565b60006020820190508181036000830152610ad281610a96565b9050919050565b7f4e6f74206f776e65720000000000000000000000000000000000000000000000600082015250565b6000610b0f6009836107fe565b9150610b1a82610ad9565b602082019050919050565b60006020820190508181036000830152610b3e81610b02565b9050919050565b7f73656e74206d616e790000000000000000000000000000000000000000000000600082015250565b6000610b7b6009836107fe565b9150610b8682610b45565b602082019050919050565b610b9a81610790565b82525050565b6000606082019050610bb560008301856108af565b8181036020830152610bc681610b6e565b9050610bd56040830184610b91565b9392505050565b610be581610961565b82525050565b6000608082019050610c006000830187610b91565b610c0d6020830186610bdc565b610c1a60408301856108af565b610c276060830184610b91565b9594505050505056fea2646970667358221220a35161da10cf1391059a5b30d9cf49251917e01dbc64e3b0d731214c1802039a64736f6c63430008180033",
  "linkReferences": {},
  "deployedLinkReferences": {}
}