{
	"contracts/Shop.sol": {
		"Shop": {
			"abi": [
				{
					"inputs": [],
					"stateMutability": "nonpayable",
					"type": "constructor"
				},
				{
					"anonymous": false,
					"inputs": [
						{
							"indexed": false,
							"internalType": "int256",
							"name": "id",
							"type": "int256"
						},
						{
							"indexed": false,
							"internalType": "address",
							"name": "from",
							"type": "address"
						},
						{
							"indexed": false,
							"internalType": "uint256",
							"name": "total",
							"type": "uint256"
						},
						{
							"indexed": false,
							"internalType": "int256",
							"name": "time",
							"type": "int256"
						}
					],
					"name": "ToPay",
					"type": "event"
				},
				{
					"anonymous": false,
					"inputs": [
						{
							"indexed": false,
							"internalType": "uint256",
							"name": "total",
							"type": "uint256"
						},
						{
							"indexed": false,
							"internalType": "string",
							"name": "target",
							"type": "string"
						},
						{
							"indexed": false,
							"internalType": "int256",
							"name": "time",
							"type": "int256"
						}
					],
					"name": "ToSend",
					"type": "event"
				},
				{
					"inputs": [
						{
							"internalType": "int256",
							"name": "id",
							"type": "int256"
						}
					],
					"name": "backMoney",
					"outputs": [
						{
							"internalType": "string",
							"name": "",
							"type": "string"
						}
					],
					"stateMutability": "nonpayable",
					"type": "function"
				},
				{
					"inputs": [],
					"name": "balanceOf",
					"outputs": [
						{
							"internalType": "uint256",
							"name": "",
							"type": "uint256"
						}
					],
					"stateMutability": "view",
					"type": "function"
				},
				{
					"inputs": [
						{
							"internalType": "int256",
							"name": "id",
							"type": "int256"
						}
					],
					"name": "pay",
					"outputs": [],
					"stateMutability": "payable",
					"type": "function"
				},
				{
					"inputs": [],
					"name": "send_all",
					"outputs": [],
					"stateMutability": "nonpayable",
					"type": "function"
				},
				{
					"inputs": [
						{
							"internalType": "uint256",
							"name": "value",
							"type": "uint256"
						}
					],
					"name": "to_send",
					"outputs": [],
					"stateMutability": "nonpayable",
					"type": "function"
				},
				{
					"inputs": [
						{
							"internalType": "int256",
							"name": "id",
							"type": "int256"
						}
					],
					"name": "transaction",
					"outputs": [
						{
							"components": [
								{
									"internalType": "int256",
									"name": "id",
									"type": "int256"
								},
								{
									"internalType": "address",
									"name": "from",
									"type": "address"
								},
								{
									"internalType": "uint256",
									"name": "total",
									"type": "uint256"
								},
								{
									"internalType": "int256",
									"name": "time",
									"type": "int256"
								}
							],
							"internalType": "struct Shop.Payment",
							"name": "",
							"type": "tuple"
						}
					],
					"stateMutability": "view",
					"type": "function"
				}
			],
			"devdoc": {
				"kind": "dev",
				"methods": {},
				"version": 1
			},
			"evm": {
				"assembly": "    /* \"contracts/Shop.sol\":64:1915  contract Shop {... */\n  mstore(0x40, 0x80)\n    /* \"contracts/Shop.sol\":281:339  constructor() {... */\n  callvalue\n  dup1\n  iszero\n  tag_1\n  jumpi\n  0x00\n  dup1\n  revert\ntag_1:\n  pop\n    /* \"contracts/Shop.sol\":321:331  msg.sender */\n  caller\n    /* \"contracts/Shop.sol\":305:310  owner */\n  0x00\n  dup1\n    /* \"contracts/Shop.sol\":305:332  owner = payable(msg.sender) */\n  0x0100\n  exp\n  dup2\n  sload\n  dup2\n  0xffffffffffffffffffffffffffffffffffffffff\n  mul\n  not\n  and\n  swap1\n  dup4\n  0xffffffffffffffffffffffffffffffffffffffff\n  and\n  mul\n  or\n  swap1\n  sstore\n  pop\n    /* \"contracts/Shop.sol\":64:1915  contract Shop {... */\n  dataSize(sub_0)\n  dup1\n  dataOffset(sub_0)\n  0x00\n  codecopy\n  0x00\n  return\nstop\n\nsub_0: assembly {\n        /* \"contracts/Shop.sol\":64:1915  contract Shop {... */\n      mstore(0x40, 0x80)\n      jumpi(tag_1, lt(calldatasize, 0x04))\n      shr(0xe0, calldataload(0x00))\n      dup1\n      0x07cb2d75\n      eq\n      tag_2\n      jumpi\n      dup1\n      0x2193cdba\n      eq\n      tag_3\n      jumpi\n      dup1\n      0x722713f7\n      eq\n      tag_4\n      jumpi\n      dup1\n      0xc5fc77bf\n      eq\n      tag_5\n      jumpi\n      dup1\n      0xd6c9cf90\n      eq\n      tag_6\n      jumpi\n      dup1\n      0xe1457faf\n      eq\n      tag_7\n      jumpi\n    tag_1:\n      0x00\n      dup1\n      revert\n        /* \"contracts/Shop.sol\":1498:1910  function backMoney(int256 id) public returns (string memory) {... */\n    tag_2:\n      callvalue\n      dup1\n      iszero\n      tag_8\n      jumpi\n      0x00\n      dup1\n      revert\n    tag_8:\n      pop\n      tag_9\n      0x04\n      dup1\n      calldatasize\n      sub\n      dup2\n      add\n      swap1\n      tag_10\n      swap2\n      swap1\n      tag_11\n      jump\t// in\n    tag_10:\n      tag_12\n      jump\t// in\n    tag_9:\n      mload(0x40)\n      tag_13\n      swap2\n      swap1\n      tag_14\n      jump\t// in\n    tag_13:\n      mload(0x40)\n      dup1\n      swap2\n      sub\n      swap1\n      return\n        /* \"contracts/Shop.sol\":1074:1270  function send_all() public Is_owner {... */\n    tag_3:\n      callvalue\n      dup1\n      iszero\n      tag_15\n      jumpi\n      0x00\n      dup1\n      revert\n    tag_15:\n      pop\n      tag_16\n      tag_17\n      jump\t// in\n    tag_16:\n      stop\n        /* \"contracts/Shop.sol\":1387:1492  function balanceOf() public view returns (uint256) {... */\n    tag_4:\n      callvalue\n      dup1\n      iszero\n      tag_18\n      jumpi\n      0x00\n      dup1\n      revert\n    tag_18:\n      pop\n      tag_19\n      tag_20\n      jump\t// in\n    tag_19:\n      mload(0x40)\n      tag_21\n      swap2\n      swap1\n      tag_22\n      jump\t// in\n    tag_21:\n      mload(0x40)\n      dup1\n      swap2\n      sub\n      swap1\n      return\n        /* \"contracts/Shop.sol\":916:1068  function to_send(uint256 value) public Is_owner {... */\n    tag_5:\n      callvalue\n      dup1\n      iszero\n      tag_23\n      jumpi\n      0x00\n      dup1\n      revert\n    tag_23:\n      pop\n      tag_24\n      0x04\n      dup1\n      calldatasize\n      sub\n      dup2\n      add\n      swap1\n      tag_25\n      swap2\n      swap1\n      tag_26\n      jump\t// in\n    tag_25:\n      tag_27\n      jump\t// in\n    tag_24:\n      stop\n        /* \"contracts/Shop.sol\":1276:1381  function transaction(int256 id) public view returns (Payment memory) {... */\n    tag_6:\n      callvalue\n      dup1\n      iszero\n      tag_28\n      jumpi\n      0x00\n      dup1\n      revert\n    tag_28:\n      pop\n      tag_29\n      0x04\n      dup1\n      calldatasize\n      sub\n      dup2\n      add\n      swap1\n      tag_30\n      swap2\n      swap1\n      tag_11\n      jump\t// in\n    tag_30:\n      tag_31\n      jump\t// in\n    tag_29:\n      mload(0x40)\n      tag_32\n      swap2\n      swap1\n      tag_33\n      jump\t// in\n    tag_32:\n      mload(0x40)\n      dup1\n      swap2\n      sub\n      swap1\n      return\n        /* \"contracts/Shop.sol\":573:910  function pay(int256 id) external payable {... */\n    tag_7:\n      tag_34\n      0x04\n      dup1\n      calldatasize\n      sub\n      dup2\n      add\n      swap1\n      tag_35\n      swap2\n      swap1\n      tag_11\n      jump\t// in\n    tag_35:\n      tag_36\n      jump\t// in\n    tag_34:\n      stop\n        /* \"contracts/Shop.sol\":1498:1910  function backMoney(int256 id) public returns (string memory) {... */\n    tag_12:\n        /* \"contracts/Shop.sol\":1544:1557  string memory */\n      0x60\n        /* \"contracts/Shop.sol\":1584:1594  msg.sender */\n      caller\n        /* \"contracts/Shop.sol\":1577:1594  owner==msg.sender */\n      0xffffffffffffffffffffffffffffffffffffffff\n      and\n        /* \"contracts/Shop.sol\":1577:1582  owner */\n      0x00\n      dup1\n      sload\n      swap1\n      0x0100\n      exp\n      swap1\n      div\n      0xffffffffffffffffffffffffffffffffffffffff\n      and\n        /* \"contracts/Shop.sol\":1577:1594  owner==msg.sender */\n      0xffffffffffffffffffffffffffffffffffffffff\n      and\n      eq\n        /* \"contracts/Shop.sol\":1569:1608  require(owner==msg.sender, \"forrbiten\") */\n      tag_38\n      jumpi\n      mload(0x40)\n      0x08c379a000000000000000000000000000000000000000000000000000000000\n      dup2\n      mstore\n      0x04\n      add\n      tag_39\n      swap1\n      tag_40\n      jump\t// in\n    tag_39:\n      mload(0x40)\n      dup1\n      swap2\n      sub\n      swap1\n      revert\n    tag_38:\n        /* \"contracts/Shop.sol\":1618:1640  Payment memory payment */\n      0x00\n        /* \"contracts/Shop.sol\":1643:1658  transaction(id) */\n      tag_41\n        /* \"contracts/Shop.sol\":1655:1657  id */\n      dup4\n        /* \"contracts/Shop.sol\":1643:1654  transaction */\n      tag_31\n        /* \"contracts/Shop.sol\":1643:1658  transaction(id) */\n      jump\t// in\n    tag_41:\n        /* \"contracts/Shop.sol\":1618:1658  Payment memory payment = transaction(id) */\n      swap1\n      pop\n        /* \"contracts/Shop.sol\":1668:1684  uint256 balance_ */\n      0x00\n        /* \"contracts/Shop.sol\":1687:1698  balanceOf() */\n      tag_42\n        /* \"contracts/Shop.sol\":1687:1696  balanceOf */\n      tag_20\n        /* \"contracts/Shop.sol\":1687:1698  balanceOf() */\n      jump\t// in\n    tag_42:\n        /* \"contracts/Shop.sol\":1668:1698  uint256 balance_ = balanceOf() */\n      swap1\n      pop\n        /* \"contracts/Shop.sol\":1732:1740  balance_ */\n      dup1\n        /* \"contracts/Shop.sol\":1716:1723  payment */\n      dup3\n        /* \"contracts/Shop.sol\":1716:1729  payment.total */\n      0x40\n      add\n      mload\n        /* \"contracts/Shop.sol\":1716:1740  payment.total < balance_ */\n      lt\n        /* \"contracts/Shop.sol\":1708:1761  require(payment.total < balance_, \"Not enough money\") */\n      tag_43\n      jumpi\n      mload(0x40)\n      0x08c379a000000000000000000000000000000000000000000000000000000000\n      dup2\n      mstore\n      0x04\n      add\n      tag_44\n      swap1\n      tag_45\n      jump\t// in\n    tag_44:\n      mload(0x40)\n      dup1\n      swap2\n      sub\n      swap1\n      revert\n    tag_43:\n        /* \"contracts/Shop.sol\":1771:1791  address payable user */\n      0x00\n        /* \"contracts/Shop.sol\":1802:1809  payment */\n      dup3\n        /* \"contracts/Shop.sol\":1802:1814  payment.from */\n      0x20\n      add\n      mload\n        /* \"contracts/Shop.sol\":1771:1815  address payable user = payable(payment.from) */\n      swap1\n      pop\n        /* \"contracts/Shop.sol\":1832:1840  Payments */\n      0x01\n        /* \"contracts/Shop.sol\":1832:1844  Payments[id] */\n      0x00\n        /* \"contracts/Shop.sol\":1841:1843  id */\n      dup7\n        /* \"contracts/Shop.sol\":1832:1844  Payments[id] */\n      dup2\n      mstore\n      0x20\n      add\n      swap1\n      dup2\n      mstore\n      0x20\n      add\n      0x00\n      keccak256\n      0x00\n        /* \"contracts/Shop.sol\":1825:1844  delete Payments[id] */\n      dup1\n      dup3\n      add\n      0x00\n      swap1\n      sstore\n      0x01\n      dup3\n      add\n      exp(0x0100, 0x00)\n      dup2\n      sload\n      swap1\n      0xffffffffffffffffffffffffffffffffffffffff\n      mul\n      not\n      and\n      swap1\n      sstore\n      0x02\n      dup3\n      add\n      0x00\n      swap1\n      sstore\n      0x03\n      dup3\n      add\n      0x00\n      swap1\n      sstore\n      pop\n      pop\n        /* \"contracts/Shop.sol\":1854:1858  user */\n      dup1\n        /* \"contracts/Shop.sol\":1854:1867  user.transfer */\n      0xffffffffffffffffffffffffffffffffffffffff\n      and\n        /* \"contracts/Shop.sol\":1854:1882  user.transfer(payment.total) */\n      0x08fc\n        /* \"contracts/Shop.sol\":1868:1875  payment */\n      dup5\n        /* \"contracts/Shop.sol\":1868:1881  payment.total */\n      0x40\n      add\n      mload\n        /* \"contracts/Shop.sol\":1854:1882  user.transfer(payment.total) */\n      swap1\n      dup2\n      iszero\n      mul\n      swap1\n      mload(0x40)\n      0x00\n      mload(0x40)\n      dup1\n      dup4\n      sub\n      dup2\n      dup6\n      dup9\n      dup9\n      call\n      swap4\n      pop\n      pop\n      pop\n      pop\n      iszero\n      dup1\n      iszero\n      tag_47\n      jumpi\n      returndatasize\n      0x00\n      dup1\n      returndatacopy\n      revert(0x00, returndatasize)\n    tag_47:\n      pop\n        /* \"contracts/Shop.sol\":1892:1903  return \"ok\" */\n      mload(0x40)\n      dup1\n      0x40\n      add\n      0x40\n      mstore\n      dup1\n      0x02\n      dup2\n      mstore\n      0x20\n      add\n      0x6f6b000000000000000000000000000000000000000000000000000000000000\n      dup2\n      mstore\n      pop\n      swap4\n      pop\n      pop\n      pop\n      pop\n        /* \"contracts/Shop.sol\":1498:1910  function backMoney(int256 id) public returns (string memory) {... */\n      swap2\n      swap1\n      pop\n      jump\t// out\n        /* \"contracts/Shop.sol\":1074:1270  function send_all() public Is_owner {... */\n    tag_17:\n        /* \"contracts/Shop.sol\":525:535  msg.sender */\n      caller\n        /* \"contracts/Shop.sol\":516:535  owner != msg.sender */\n      0xffffffffffffffffffffffffffffffffffffffff\n      and\n        /* \"contracts/Shop.sol\":516:521  owner */\n      0x00\n      dup1\n      sload\n      swap1\n      0x0100\n      exp\n      swap1\n      div\n      0xffffffffffffffffffffffffffffffffffffffff\n      and\n        /* \"contracts/Shop.sol\":516:535  owner != msg.sender */\n      0xffffffffffffffffffffffffffffffffffffffff\n      and\n      sub\n        /* \"contracts/Shop.sol\":508:549  require(owner != msg.sender, \"Not owner\") */\n      tag_49\n      jumpi\n      mload(0x40)\n      0x08c379a000000000000000000000000000000000000000000000000000000000\n      dup2\n      mstore\n      0x04\n      add\n      tag_50\n      swap1\n      tag_51\n      jump\t// in\n    tag_50:\n      mload(0x40)\n      dup1\n      swap2\n      sub\n      swap1\n      revert\n    tag_49:\n        /* \"contracts/Shop.sol\":1120:1133  uint256 value */\n      0x00\n        /* \"contracts/Shop.sol\":1144:1165  address(this).balance */\n      selfbalance\n        /* \"contracts/Shop.sol\":1120:1166  uint256 value = uint256(address(this).balance) */\n      swap1\n      pop\n        /* \"contracts/Shop.sol\":1181:1232  ToSend(value, \"sent many\", int256(block.timestamp)) */\n      0x9182d0d980be49b7a83210a5ebef5acd99931488ad53607e98527fa23f8e0a2b\n        /* \"contracts/Shop.sol\":1188:1193  value */\n      dup2\n        /* \"contracts/Shop.sol\":1215:1230  block.timestamp */\n      timestamp\n        /* \"contracts/Shop.sol\":1181:1232  ToSend(value, \"sent many\", int256(block.timestamp)) */\n      mload(0x40)\n      tag_53\n      swap3\n      swap2\n      swap1\n      tag_54\n      jump\t// in\n    tag_53:\n      mload(0x40)\n      dup1\n      swap2\n      sub\n      swap1\n      log1\n        /* \"contracts/Shop.sol\":1242:1247  owner */\n      0x00\n      dup1\n      sload\n      swap1\n      0x0100\n      exp\n      swap1\n      div\n      0xffffffffffffffffffffffffffffffffffffffff\n      and\n        /* \"contracts/Shop.sol\":1242:1256  owner.transfer */\n      0xffffffffffffffffffffffffffffffffffffffff\n      and\n        /* \"contracts/Shop.sol\":1242:1263  owner.transfer(value) */\n      0x08fc\n        /* \"contracts/Shop.sol\":1257:1262  value */\n      dup3\n        /* \"contracts/Shop.sol\":1242:1263  owner.transfer(value) */\n      swap1\n      dup2\n      iszero\n      mul\n      swap1\n      mload(0x40)\n      0x00\n      mload(0x40)\n      dup1\n      dup4\n      sub\n      dup2\n      dup6\n      dup9\n      dup9\n      call\n      swap4\n      pop\n      pop\n      pop\n      pop\n      iszero\n      dup1\n      iszero\n      tag_56\n      jumpi\n      returndatasize\n      0x00\n      dup1\n      returndatacopy\n      revert(0x00, returndatasize)\n    tag_56:\n      pop\n        /* \"contracts/Shop.sol\":1110:1270  {... */\n      pop\n        /* \"contracts/Shop.sol\":1074:1270  function send_all() public Is_owner {... */\n      jump\t// out\n        /* \"contracts/Shop.sol\":1387:1492  function balanceOf() public view returns (uint256) {... */\n    tag_20:\n        /* \"contracts/Shop.sol\":1429:1436  uint256 */\n      0x00\n        /* \"contracts/Shop.sol\":1463:1484  address(this).balance */\n      selfbalance\n        /* \"contracts/Shop.sol\":1448:1485  return uint256(address(this).balance) */\n      swap1\n      pop\n        /* \"contracts/Shop.sol\":1387:1492  function balanceOf() public view returns (uint256) {... */\n      swap1\n      jump\t// out\n        /* \"contracts/Shop.sol\":916:1068  function to_send(uint256 value) public Is_owner {... */\n    tag_27:\n        /* \"contracts/Shop.sol\":525:535  msg.sender */\n      caller\n        /* \"contracts/Shop.sol\":516:535  owner != msg.sender */\n      0xffffffffffffffffffffffffffffffffffffffff\n      and\n        /* \"contracts/Shop.sol\":516:521  owner */\n      0x00\n      dup1\n      sload\n      swap1\n      0x0100\n      exp\n      swap1\n      div\n      0xffffffffffffffffffffffffffffffffffffffff\n      and\n        /* \"contracts/Shop.sol\":516:535  owner != msg.sender */\n      0xffffffffffffffffffffffffffffffffffffffff\n      and\n      sub\n        /* \"contracts/Shop.sol\":508:549  require(owner != msg.sender, \"Not owner\") */\n      tag_59\n      jumpi\n      mload(0x40)\n      0x08c379a000000000000000000000000000000000000000000000000000000000\n      dup2\n      mstore\n      0x04\n      add\n      tag_60\n      swap1\n      tag_51\n      jump\t// in\n    tag_60:\n      mload(0x40)\n      dup1\n      swap2\n      sub\n      swap1\n      revert\n    tag_59:\n        /* \"contracts/Shop.sol\":979:1030  ToSend(value, \"sent many\", int256(block.timestamp)) */\n      0x9182d0d980be49b7a83210a5ebef5acd99931488ad53607e98527fa23f8e0a2b\n        /* \"contracts/Shop.sol\":986:991  value */\n      dup2\n        /* \"contracts/Shop.sol\":1013:1028  block.timestamp */\n      timestamp\n        /* \"contracts/Shop.sol\":979:1030  ToSend(value, \"sent many\", int256(block.timestamp)) */\n      mload(0x40)\n      tag_62\n      swap3\n      swap2\n      swap1\n      tag_54\n      jump\t// in\n    tag_62:\n      mload(0x40)\n      dup1\n      swap2\n      sub\n      swap1\n      log1\n        /* \"contracts/Shop.sol\":1040:1045  owner */\n      0x00\n      dup1\n      sload\n      swap1\n      0x0100\n      exp\n      swap1\n      div\n      0xffffffffffffffffffffffffffffffffffffffff\n      and\n        /* \"contracts/Shop.sol\":1040:1054  owner.transfer */\n      0xffffffffffffffffffffffffffffffffffffffff\n      and\n        /* \"contracts/Shop.sol\":1040:1061  owner.transfer(value) */\n      0x08fc\n        /* \"contracts/Shop.sol\":1055:1060  value */\n      dup3\n        /* \"contracts/Shop.sol\":1040:1061  owner.transfer(value) */\n      swap1\n      dup2\n      iszero\n      mul\n      swap1\n      mload(0x40)\n      0x00\n      mload(0x40)\n      dup1\n      dup4\n      sub\n      dup2\n      dup6\n      dup9\n      dup9\n      call\n      swap4\n      pop\n      pop\n      pop\n      pop\n      iszero\n      dup1\n      iszero\n      tag_64\n      jumpi\n      returndatasize\n      0x00\n      dup1\n      returndatacopy\n      revert(0x00, returndatasize)\n    tag_64:\n      pop\n        /* \"contracts/Shop.sol\":916:1068  function to_send(uint256 value) public Is_owner {... */\n      pop\n      jump\t// out\n        /* \"contracts/Shop.sol\":1276:1381  function transaction(int256 id) public view returns (Payment memory) {... */\n    tag_31:\n        /* \"contracts/Shop.sol\":1329:1343  Payment memory */\n      tag_65\n      tag_66\n      jump\t// in\n    tag_65:\n        /* \"contracts/Shop.sol\":1362:1370  Payments */\n      0x01\n        /* \"contracts/Shop.sol\":1362:1374  Payments[id] */\n      0x00\n        /* \"contracts/Shop.sol\":1371:1373  id */\n      dup4\n        /* \"contracts/Shop.sol\":1362:1374  Payments[id] */\n      dup2\n      mstore\n      0x20\n      add\n      swap1\n      dup2\n      mstore\n      0x20\n      add\n      0x00\n      keccak256\n        /* \"contracts/Shop.sol\":1355:1374  return Payments[id] */\n      mload(0x40)\n      dup1\n      0x80\n      add\n      0x40\n      mstore\n      swap1\n      dup2\n      0x00\n      dup3\n      add\n      sload\n      dup2\n      mstore\n      0x20\n      add\n      0x01\n      dup3\n      add\n      0x00\n      swap1\n      sload\n      swap1\n      0x0100\n      exp\n      swap1\n      div\n      0xffffffffffffffffffffffffffffffffffffffff\n      and\n      0xffffffffffffffffffffffffffffffffffffffff\n      and\n      0xffffffffffffffffffffffffffffffffffffffff\n      and\n      dup2\n      mstore\n      0x20\n      add\n      0x02\n      dup3\n      add\n      sload\n      dup2\n      mstore\n      0x20\n      add\n      0x03\n      dup3\n      add\n      sload\n      dup2\n      mstore\n      pop\n      pop\n      swap1\n      pop\n        /* \"contracts/Shop.sol\":1276:1381  function transaction(int256 id) public view returns (Payment memory) {... */\n      swap2\n      swap1\n      pop\n      jump\t// out\n        /* \"contracts/Shop.sol\":573:910  function pay(int256 id) external payable {... */\n    tag_36:\n        /* \"contracts/Shop.sol\":624:637  address from_ */\n      0x00\n        /* \"contracts/Shop.sol\":640:650  msg.sender */\n      caller\n        /* \"contracts/Shop.sol\":624:650  address from_ = msg.sender */\n      swap1\n      pop\n        /* \"contracts/Shop.sol\":660:674  uint256 total_ */\n      0x00\n        /* \"contracts/Shop.sol\":685:694  msg.value */\n      callvalue\n        /* \"contracts/Shop.sol\":660:695  uint256 total_ = uint256(msg.value) */\n      swap1\n      pop\n        /* \"contracts/Shop.sol\":705:717  int256 time_ */\n      0x00\n        /* \"contracts/Shop.sol\":727:742  block.timestamp */\n      timestamp\n        /* \"contracts/Shop.sol\":705:743  int256 time_ = int256(block.timestamp) */\n      swap1\n      pop\n        /* \"contracts/Shop.sol\":758:797  ToPay(int256(id), from_, total_, time_) */\n      0x551b11895d5bb630ed46268308636d2c125a772e97c8a5e564805977feda339d\n        /* \"contracts/Shop.sol\":771:773  id */\n      dup5\n        /* \"contracts/Shop.sol\":776:781  from_ */\n      dup5\n        /* \"contracts/Shop.sol\":783:789  total_ */\n      dup5\n        /* \"contracts/Shop.sol\":791:796  time_ */\n      dup5\n        /* \"contracts/Shop.sol\":758:797  ToPay(int256(id), from_, total_, time_) */\n      mload(0x40)\n      tag_69\n      swap5\n      swap4\n      swap3\n      swap2\n      swap1\n      tag_70\n      jump\t// in\n    tag_69:\n      mload(0x40)\n      dup1\n      swap2\n      sub\n      swap1\n      log1\n        /* \"contracts/Shop.sol\":807:828  Payment memory newpay */\n      0x00\n        /* \"contracts/Shop.sol\":831:872  Payment(int256(id), from_, total_, time_) */\n      mload(0x40)\n      dup1\n      0x80\n      add\n      0x40\n      mstore\n      dup1\n        /* \"contracts/Shop.sol\":846:848  id */\n      dup7\n        /* \"contracts/Shop.sol\":831:872  Payment(int256(id), from_, total_, time_) */\n      dup2\n      mstore\n      0x20\n      add\n        /* \"contracts/Shop.sol\":851:856  from_ */\n      dup6\n        /* \"contracts/Shop.sol\":831:872  Payment(int256(id), from_, total_, time_) */\n      0xffffffffffffffffffffffffffffffffffffffff\n      and\n      dup2\n      mstore\n      0x20\n      add\n        /* \"contracts/Shop.sol\":858:864  total_ */\n      dup5\n        /* \"contracts/Shop.sol\":831:872  Payment(int256(id), from_, total_, time_) */\n      dup2\n      mstore\n      0x20\n      add\n        /* \"contracts/Shop.sol\":866:871  time_ */\n      dup4\n        /* \"contracts/Shop.sol\":831:872  Payment(int256(id), from_, total_, time_) */\n      dup2\n      mstore\n      pop\n        /* \"contracts/Shop.sol\":807:872  Payment memory newpay = Payment(int256(id), from_, total_, time_) */\n      swap1\n      pop\n        /* \"contracts/Shop.sol\":897:903  newpay */\n      dup1\n        /* \"contracts/Shop.sol\":882:890  Payments */\n      0x01\n        /* \"contracts/Shop.sol\":882:894  Payments[id] */\n      0x00\n        /* \"contracts/Shop.sol\":891:893  id */\n      dup8\n        /* \"contracts/Shop.sol\":882:894  Payments[id] */\n      dup2\n      mstore\n      0x20\n      add\n      swap1\n      dup2\n      mstore\n      0x20\n      add\n      0x00\n      keccak256\n        /* \"contracts/Shop.sol\":882:903  Payments[id] = newpay */\n      0x00\n      dup3\n      add\n      mload\n      dup2\n      0x00\n      add\n      sstore\n      0x20\n      dup3\n      add\n      mload\n      dup2\n      0x01\n      add\n      exp(0x0100, 0x00)\n      dup2\n      sload\n      dup2\n      0xffffffffffffffffffffffffffffffffffffffff\n      mul\n      not\n      and\n      swap1\n      dup4\n      0xffffffffffffffffffffffffffffffffffffffff\n      and\n      mul\n      or\n      swap1\n      sstore\n      pop\n      0x40\n      dup3\n      add\n      mload\n      dup2\n      0x02\n      add\n      sstore\n      0x60\n      dup3\n      add\n      mload\n      dup2\n      0x03\n      add\n      sstore\n      swap1\n      pop\n      pop\n        /* \"contracts/Shop.sol\":614:910  {... */\n      pop\n      pop\n      pop\n      pop\n        /* \"contracts/Shop.sol\":573:910  function pay(int256 id) external payable {... */\n      pop\n      jump\t// out\n    tag_66:\n      mload(0x40)\n      dup1\n      0x80\n      add\n      0x40\n      mstore\n      dup1\n      0x00\n      dup2\n      mstore\n      0x20\n      add\n      and(0xffffffffffffffffffffffffffffffffffffffff, 0x00)\n      dup2\n      mstore\n      0x20\n      add\n      0x00\n      dup2\n      mstore\n      0x20\n      add\n      0x00\n      dup2\n      mstore\n      pop\n      swap1\n      jump\t// out\n        /* \"#utility.yul\":88:205   */\n    tag_72:\n        /* \"#utility.yul\":197:198   */\n      0x00\n        /* \"#utility.yul\":194:195   */\n      dup1\n        /* \"#utility.yul\":187:199   */\n      revert\n        /* \"#utility.yul\":334:410   */\n    tag_74:\n        /* \"#utility.yul\":370:377   */\n      0x00\n        /* \"#utility.yul\":399:404   */\n      dup2\n        /* \"#utility.yul\":388:404   */\n      swap1\n      pop\n        /* \"#utility.yul\":334:410   */\n      swap2\n      swap1\n      pop\n      jump\t// out\n        /* \"#utility.yul\":416:536   */\n    tag_75:\n        /* \"#utility.yul\":488:511   */\n      tag_108\n        /* \"#utility.yul\":505:510   */\n      dup2\n        /* \"#utility.yul\":488:511   */\n      tag_74\n      jump\t// in\n    tag_108:\n        /* \"#utility.yul\":481:486   */\n      dup2\n        /* \"#utility.yul\":478:512   */\n      eq\n        /* \"#utility.yul\":468:530   */\n      tag_109\n      jumpi\n        /* \"#utility.yul\":526:527   */\n      0x00\n        /* \"#utility.yul\":523:524   */\n      dup1\n        /* \"#utility.yul\":516:528   */\n      revert\n        /* \"#utility.yul\":468:530   */\n    tag_109:\n        /* \"#utility.yul\":416:536   */\n      pop\n      jump\t// out\n        /* \"#utility.yul\":542:679   */\n    tag_76:\n        /* \"#utility.yul\":587:592   */\n      0x00\n        /* \"#utility.yul\":625:631   */\n      dup2\n        /* \"#utility.yul\":612:632   */\n      calldataload\n        /* \"#utility.yul\":603:632   */\n      swap1\n      pop\n        /* \"#utility.yul\":641:673   */\n      tag_111\n        /* \"#utility.yul\":667:672   */\n      dup2\n        /* \"#utility.yul\":641:673   */\n      tag_75\n      jump\t// in\n    tag_111:\n        /* \"#utility.yul\":542:679   */\n      swap3\n      swap2\n      pop\n      pop\n      jump\t// out\n        /* \"#utility.yul\":685:1012   */\n    tag_11:\n        /* \"#utility.yul\":743:749   */\n      0x00\n        /* \"#utility.yul\":792:794   */\n      0x20\n        /* \"#utility.yul\":780:789   */\n      dup3\n        /* \"#utility.yul\":771:778   */\n      dup5\n        /* \"#utility.yul\":767:790   */\n      sub\n        /* \"#utility.yul\":763:795   */\n      slt\n        /* \"#utility.yul\":760:879   */\n      iszero\n      tag_113\n      jumpi\n        /* \"#utility.yul\":798:877   */\n      tag_114\n      tag_72\n      jump\t// in\n    tag_114:\n        /* \"#utility.yul\":760:879   */\n    tag_113:\n        /* \"#utility.yul\":918:919   */\n      0x00\n        /* \"#utility.yul\":943:995   */\n      tag_115\n        /* \"#utility.yul\":987:994   */\n      dup5\n        /* \"#utility.yul\":978:984   */\n      dup3\n        /* \"#utility.yul\":967:976   */\n      dup6\n        /* \"#utility.yul\":963:985   */\n      add\n        /* \"#utility.yul\":943:995   */\n      tag_76\n      jump\t// in\n    tag_115:\n        /* \"#utility.yul\":933:995   */\n      swap2\n      pop\n        /* \"#utility.yul\":889:1005   */\n      pop\n        /* \"#utility.yul\":685:1012   */\n      swap3\n      swap2\n      pop\n      pop\n      jump\t// out\n        /* \"#utility.yul\":1018:1117   */\n    tag_77:\n        /* \"#utility.yul\":1070:1076   */\n      0x00\n        /* \"#utility.yul\":1104:1109   */\n      dup2\n        /* \"#utility.yul\":1098:1110   */\n      mload\n        /* \"#utility.yul\":1088:1110   */\n      swap1\n      pop\n        /* \"#utility.yul\":1018:1117   */\n      swap2\n      swap1\n      pop\n      jump\t// out\n        /* \"#utility.yul\":1123:1292   */\n    tag_78:\n        /* \"#utility.yul\":1207:1218   */\n      0x00\n        /* \"#utility.yul\":1241:1247   */\n      dup3\n        /* \"#utility.yul\":1236:1239   */\n      dup3\n        /* \"#utility.yul\":1229:1248   */\n      mstore\n        /* \"#utility.yul\":1281:1285   */\n      0x20\n        /* \"#utility.yul\":1276:1279   */\n      dup3\n        /* \"#utility.yul\":1272:1286   */\n      add\n        /* \"#utility.yul\":1257:1286   */\n      swap1\n      pop\n        /* \"#utility.yul\":1123:1292   */\n      swap3\n      swap2\n      pop\n      pop\n      jump\t// out\n        /* \"#utility.yul\":1298:1544   */\n    tag_79:\n        /* \"#utility.yul\":1379:1380   */\n      0x00\n        /* \"#utility.yul\":1389:1502   */\n    tag_119:\n        /* \"#utility.yul\":1403:1409   */\n      dup4\n        /* \"#utility.yul\":1400:1401   */\n      dup2\n        /* \"#utility.yul\":1397:1410   */\n      lt\n        /* \"#utility.yul\":1389:1502   */\n      iszero\n      tag_121\n      jumpi\n        /* \"#utility.yul\":1488:1489   */\n      dup1\n        /* \"#utility.yul\":1483:1486   */\n      dup3\n        /* \"#utility.yul\":1479:1490   */\n      add\n        /* \"#utility.yul\":1473:1491   */\n      mload\n        /* \"#utility.yul\":1469:1470   */\n      dup2\n        /* \"#utility.yul\":1464:1467   */\n      dup5\n        /* \"#utility.yul\":1460:1471   */\n      add\n        /* \"#utility.yul\":1453:1492   */\n      mstore\n        /* \"#utility.yul\":1425:1427   */\n      0x20\n        /* \"#utility.yul\":1422:1423   */\n      dup2\n        /* \"#utility.yul\":1418:1428   */\n      add\n        /* \"#utility.yul\":1413:1428   */\n      swap1\n      pop\n        /* \"#utility.yul\":1389:1502   */\n      jump(tag_119)\n    tag_121:\n        /* \"#utility.yul\":1536:1537   */\n      0x00\n        /* \"#utility.yul\":1527:1533   */\n      dup5\n        /* \"#utility.yul\":1522:1525   */\n      dup5\n        /* \"#utility.yul\":1518:1534   */\n      add\n        /* \"#utility.yul\":1511:1538   */\n      mstore\n        /* \"#utility.yul\":1360:1544   */\n      pop\n        /* \"#utility.yul\":1298:1544   */\n      pop\n      pop\n      pop\n      jump\t// out\n        /* \"#utility.yul\":1550:1652   */\n    tag_80:\n        /* \"#utility.yul\":1591:1597   */\n      0x00\n        /* \"#utility.yul\":1642:1644   */\n      0x1f\n        /* \"#utility.yul\":1638:1645   */\n      not\n        /* \"#utility.yul\":1633:1635   */\n      0x1f\n        /* \"#utility.yul\":1626:1631   */\n      dup4\n        /* \"#utility.yul\":1622:1636   */\n      add\n        /* \"#utility.yul\":1618:1646   */\n      and\n        /* \"#utility.yul\":1608:1646   */\n      swap1\n      pop\n        /* \"#utility.yul\":1550:1652   */\n      swap2\n      swap1\n      pop\n      jump\t// out\n        /* \"#utility.yul\":1658:2035   */\n    tag_81:\n        /* \"#utility.yul\":1746:1749   */\n      0x00\n        /* \"#utility.yul\":1774:1813   */\n      tag_124\n        /* \"#utility.yul\":1807:1812   */\n      dup3\n        /* \"#utility.yul\":1774:1813   */\n      tag_77\n      jump\t// in\n    tag_124:\n        /* \"#utility.yul\":1829:1900   */\n      tag_125\n        /* \"#utility.yul\":1893:1899   */\n      dup2\n        /* \"#utility.yul\":1888:1891   */\n      dup6\n        /* \"#utility.yul\":1829:1900   */\n      tag_78\n      jump\t// in\n    tag_125:\n        /* \"#utility.yul\":1822:1900   */\n      swap4\n      pop\n        /* \"#utility.yul\":1909:1974   */\n      tag_126\n        /* \"#utility.yul\":1967:1973   */\n      dup2\n        /* \"#utility.yul\":1962:1965   */\n      dup6\n        /* \"#utility.yul\":1955:1959   */\n      0x20\n        /* \"#utility.yul\":1948:1953   */\n      dup7\n        /* \"#utility.yul\":1944:1960   */\n      add\n        /* \"#utility.yul\":1909:1974   */\n      tag_79\n      jump\t// in\n    tag_126:\n        /* \"#utility.yul\":1999:2028   */\n      tag_127\n        /* \"#utility.yul\":2021:2027   */\n      dup2\n        /* \"#utility.yul\":1999:2028   */\n      tag_80\n      jump\t// in\n    tag_127:\n        /* \"#utility.yul\":1994:1997   */\n      dup5\n        /* \"#utility.yul\":1990:2029   */\n      add\n        /* \"#utility.yul\":1983:2029   */\n      swap2\n      pop\n        /* \"#utility.yul\":1750:2035   */\n      pop\n        /* \"#utility.yul\":1658:2035   */\n      swap3\n      swap2\n      pop\n      pop\n      jump\t// out\n        /* \"#utility.yul\":2041:2354   */\n    tag_14:\n        /* \"#utility.yul\":2154:2158   */\n      0x00\n        /* \"#utility.yul\":2192:2194   */\n      0x20\n        /* \"#utility.yul\":2181:2190   */\n      dup3\n        /* \"#utility.yul\":2177:2195   */\n      add\n        /* \"#utility.yul\":2169:2195   */\n      swap1\n      pop\n        /* \"#utility.yul\":2241:2250   */\n      dup2\n        /* \"#utility.yul\":2235:2239   */\n      dup2\n        /* \"#utility.yul\":2231:2251   */\n      sub\n        /* \"#utility.yul\":2227:2228   */\n      0x00\n        /* \"#utility.yul\":2216:2225   */\n      dup4\n        /* \"#utility.yul\":2212:2229   */\n      add\n        /* \"#utility.yul\":2205:2252   */\n      mstore\n        /* \"#utility.yul\":2269:2347   */\n      tag_129\n        /* \"#utility.yul\":2342:2346   */\n      dup2\n        /* \"#utility.yul\":2333:2339   */\n      dup5\n        /* \"#utility.yul\":2269:2347   */\n      tag_81\n      jump\t// in\n    tag_129:\n        /* \"#utility.yul\":2261:2347   */\n      swap1\n      pop\n        /* \"#utility.yul\":2041:2354   */\n      swap3\n      swap2\n      pop\n      pop\n      jump\t// out\n        /* \"#utility.yul\":2360:2437   */\n    tag_82:\n        /* \"#utility.yul\":2397:2404   */\n      0x00\n        /* \"#utility.yul\":2426:2431   */\n      dup2\n        /* \"#utility.yul\":2415:2431   */\n      swap1\n      pop\n        /* \"#utility.yul\":2360:2437   */\n      swap2\n      swap1\n      pop\n      jump\t// out\n        /* \"#utility.yul\":2443:2561   */\n    tag_83:\n        /* \"#utility.yul\":2530:2554   */\n      tag_132\n        /* \"#utility.yul\":2548:2553   */\n      dup2\n        /* \"#utility.yul\":2530:2554   */\n      tag_82\n      jump\t// in\n    tag_132:\n        /* \"#utility.yul\":2525:2528   */\n      dup3\n        /* \"#utility.yul\":2518:2555   */\n      mstore\n        /* \"#utility.yul\":2443:2561   */\n      pop\n      pop\n      jump\t// out\n        /* \"#utility.yul\":2567:2789   */\n    tag_22:\n        /* \"#utility.yul\":2660:2664   */\n      0x00\n        /* \"#utility.yul\":2698:2700   */\n      0x20\n        /* \"#utility.yul\":2687:2696   */\n      dup3\n        /* \"#utility.yul\":2683:2701   */\n      add\n        /* \"#utility.yul\":2675:2701   */\n      swap1\n      pop\n        /* \"#utility.yul\":2711:2782   */\n      tag_134\n        /* \"#utility.yul\":2779:2780   */\n      0x00\n        /* \"#utility.yul\":2768:2777   */\n      dup4\n        /* \"#utility.yul\":2764:2781   */\n      add\n        /* \"#utility.yul\":2755:2761   */\n      dup5\n        /* \"#utility.yul\":2711:2782   */\n      tag_83\n      jump\t// in\n    tag_134:\n        /* \"#utility.yul\":2567:2789   */\n      swap3\n      swap2\n      pop\n      pop\n      jump\t// out\n        /* \"#utility.yul\":2795:2917   */\n    tag_84:\n        /* \"#utility.yul\":2868:2892   */\n      tag_136\n        /* \"#utility.yul\":2886:2891   */\n      dup2\n        /* \"#utility.yul\":2868:2892   */\n      tag_82\n      jump\t// in\n    tag_136:\n        /* \"#utility.yul\":2861:2866   */\n      dup2\n        /* \"#utility.yul\":2858:2893   */\n      eq\n        /* \"#utility.yul\":2848:2911   */\n      tag_137\n      jumpi\n        /* \"#utility.yul\":2907:2908   */\n      0x00\n        /* \"#utility.yul\":2904:2905   */\n      dup1\n        /* \"#utility.yul\":2897:2909   */\n      revert\n        /* \"#utility.yul\":2848:2911   */\n    tag_137:\n        /* \"#utility.yul\":2795:2917   */\n      pop\n      jump\t// out\n        /* \"#utility.yul\":2923:3062   */\n    tag_85:\n        /* \"#utility.yul\":2969:2974   */\n      0x00\n        /* \"#utility.yul\":3007:3013   */\n      dup2\n        /* \"#utility.yul\":2994:3014   */\n      calldataload\n        /* \"#utility.yul\":2985:3014   */\n      swap1\n      pop\n        /* \"#utility.yul\":3023:3056   */\n      tag_139\n        /* \"#utility.yul\":3050:3055   */\n      dup2\n        /* \"#utility.yul\":3023:3056   */\n      tag_84\n      jump\t// in\n    tag_139:\n        /* \"#utility.yul\":2923:3062   */\n      swap3\n      swap2\n      pop\n      pop\n      jump\t// out\n        /* \"#utility.yul\":3068:3397   */\n    tag_26:\n        /* \"#utility.yul\":3127:3133   */\n      0x00\n        /* \"#utility.yul\":3176:3178   */\n      0x20\n        /* \"#utility.yul\":3164:3173   */\n      dup3\n        /* \"#utility.yul\":3155:3162   */\n      dup5\n        /* \"#utility.yul\":3151:3174   */\n      sub\n        /* \"#utility.yul\":3147:3179   */\n      slt\n        /* \"#utility.yul\":3144:3263   */\n      iszero\n      tag_141\n      jumpi\n        /* \"#utility.yul\":3182:3261   */\n      tag_142\n      tag_72\n      jump\t// in\n    tag_142:\n        /* \"#utility.yul\":3144:3263   */\n    tag_141:\n        /* \"#utility.yul\":3302:3303   */\n      0x00\n        /* \"#utility.yul\":3327:3380   */\n      tag_143\n        /* \"#utility.yul\":3372:3379   */\n      dup5\n        /* \"#utility.yul\":3363:3369   */\n      dup3\n        /* \"#utility.yul\":3352:3361   */\n      dup6\n        /* \"#utility.yul\":3348:3370   */\n      add\n        /* \"#utility.yul\":3327:3380   */\n      tag_85\n      jump\t// in\n    tag_143:\n        /* \"#utility.yul\":3317:3380   */\n      swap2\n      pop\n        /* \"#utility.yul\":3273:3390   */\n      pop\n        /* \"#utility.yul\":3068:3397   */\n      swap3\n      swap2\n      pop\n      pop\n      jump\t// out\n        /* \"#utility.yul\":3403:3508   */\n    tag_86:\n        /* \"#utility.yul\":3478:3501   */\n      tag_145\n        /* \"#utility.yul\":3495:3500   */\n      dup2\n        /* \"#utility.yul\":3478:3501   */\n      tag_74\n      jump\t// in\n    tag_145:\n        /* \"#utility.yul\":3473:3476   */\n      dup3\n        /* \"#utility.yul\":3466:3502   */\n      mstore\n        /* \"#utility.yul\":3403:3508   */\n      pop\n      pop\n      jump\t// out\n        /* \"#utility.yul\":3514:3640   */\n    tag_87:\n        /* \"#utility.yul\":3551:3558   */\n      0x00\n        /* \"#utility.yul\":3591:3633   */\n      0xffffffffffffffffffffffffffffffffffffffff\n        /* \"#utility.yul\":3584:3589   */\n      dup3\n        /* \"#utility.yul\":3580:3634   */\n      and\n        /* \"#utility.yul\":3569:3634   */\n      swap1\n      pop\n        /* \"#utility.yul\":3514:3640   */\n      swap2\n      swap1\n      pop\n      jump\t// out\n        /* \"#utility.yul\":3646:3742   */\n    tag_88:\n        /* \"#utility.yul\":3683:3690   */\n      0x00\n        /* \"#utility.yul\":3712:3736   */\n      tag_148\n        /* \"#utility.yul\":3730:3735   */\n      dup3\n        /* \"#utility.yul\":3712:3736   */\n      tag_87\n      jump\t// in\n    tag_148:\n        /* \"#utility.yul\":3701:3736   */\n      swap1\n      pop\n        /* \"#utility.yul\":3646:3742   */\n      swap2\n      swap1\n      pop\n      jump\t// out\n        /* \"#utility.yul\":3748:3856   */\n    tag_89:\n        /* \"#utility.yul\":3825:3849   */\n      tag_150\n        /* \"#utility.yul\":3843:3848   */\n      dup2\n        /* \"#utility.yul\":3825:3849   */\n      tag_88\n      jump\t// in\n    tag_150:\n        /* \"#utility.yul\":3820:3823   */\n      dup3\n        /* \"#utility.yul\":3813:3850   */\n      mstore\n        /* \"#utility.yul\":3748:3856   */\n      pop\n      pop\n      jump\t// out\n        /* \"#utility.yul\":3862:3970   */\n    tag_90:\n        /* \"#utility.yul\":3939:3963   */\n      tag_152\n        /* \"#utility.yul\":3957:3962   */\n      dup2\n        /* \"#utility.yul\":3939:3963   */\n      tag_82\n      jump\t// in\n    tag_152:\n        /* \"#utility.yul\":3934:3937   */\n      dup3\n        /* \"#utility.yul\":3927:3964   */\n      mstore\n        /* \"#utility.yul\":3862:3970   */\n      pop\n      pop\n      jump\t// out\n        /* \"#utility.yul\":4026:4872   */\n    tag_91:\n        /* \"#utility.yul\":4169:4173   */\n      0x80\n        /* \"#utility.yul\":4164:4167   */\n      dup3\n        /* \"#utility.yul\":4160:4174   */\n      add\n        /* \"#utility.yul\":4254:4258   */\n      0x00\n        /* \"#utility.yul\":4247:4252   */\n      dup3\n        /* \"#utility.yul\":4243:4259   */\n      add\n        /* \"#utility.yul\":4237:4260   */\n      mload\n        /* \"#utility.yul\":4273:4334   */\n      tag_154\n        /* \"#utility.yul\":4328:4332   */\n      0x00\n        /* \"#utility.yul\":4323:4326   */\n      dup6\n        /* \"#utility.yul\":4319:4333   */\n      add\n        /* \"#utility.yul\":4305:4317   */\n      dup3\n        /* \"#utility.yul\":4273:4334   */\n      tag_86\n      jump\t// in\n    tag_154:\n        /* \"#utility.yul\":4184:4344   */\n      pop\n        /* \"#utility.yul\":4426:4430   */\n      0x20\n        /* \"#utility.yul\":4419:4424   */\n      dup3\n        /* \"#utility.yul\":4415:4431   */\n      add\n        /* \"#utility.yul\":4409:4432   */\n      mload\n        /* \"#utility.yul\":4445:4508   */\n      tag_155\n        /* \"#utility.yul\":4502:4506   */\n      0x20\n        /* \"#utility.yul\":4497:4500   */\n      dup6\n        /* \"#utility.yul\":4493:4507   */\n      add\n        /* \"#utility.yul\":4479:4491   */\n      dup3\n        /* \"#utility.yul\":4445:4508   */\n      tag_89\n      jump\t// in\n    tag_155:\n        /* \"#utility.yul\":4354:4518   */\n      pop\n        /* \"#utility.yul\":4601:4605   */\n      0x40\n        /* \"#utility.yul\":4594:4599   */\n      dup3\n        /* \"#utility.yul\":4590:4606   */\n      add\n        /* \"#utility.yul\":4584:4607   */\n      mload\n        /* \"#utility.yul\":4620:4683   */\n      tag_156\n        /* \"#utility.yul\":4677:4681   */\n      0x40\n        /* \"#utility.yul\":4672:4675   */\n      dup6\n        /* \"#utility.yul\":4668:4682   */\n      add\n        /* \"#utility.yul\":4654:4666   */\n      dup3\n        /* \"#utility.yul\":4620:4683   */\n      tag_90\n      jump\t// in\n    tag_156:\n        /* \"#utility.yul\":4528:4693   */\n      pop\n        /* \"#utility.yul\":4775:4779   */\n      0x60\n        /* \"#utility.yul\":4768:4773   */\n      dup3\n        /* \"#utility.yul\":4764:4780   */\n      add\n        /* \"#utility.yul\":4758:4781   */\n      mload\n        /* \"#utility.yul\":4794:4855   */\n      tag_157\n        /* \"#utility.yul\":4849:4853   */\n      0x60\n        /* \"#utility.yul\":4844:4847   */\n      dup6\n        /* \"#utility.yul\":4840:4854   */\n      add\n        /* \"#utility.yul\":4826:4838   */\n      dup3\n        /* \"#utility.yul\":4794:4855   */\n      tag_86\n      jump\t// in\n    tag_157:\n        /* \"#utility.yul\":4703:4865   */\n      pop\n        /* \"#utility.yul\":4138:4872   */\n      pop\n        /* \"#utility.yul\":4026:4872   */\n      pop\n      pop\n      jump\t// out\n        /* \"#utility.yul\":4878:5193   */\n    tag_33:\n        /* \"#utility.yul\":5017:5021   */\n      0x00\n        /* \"#utility.yul\":5055:5058   */\n      0x80\n        /* \"#utility.yul\":5044:5053   */\n      dup3\n        /* \"#utility.yul\":5040:5059   */\n      add\n        /* \"#utility.yul\":5032:5059   */\n      swap1\n      pop\n        /* \"#utility.yul\":5069:5186   */\n      tag_159\n        /* \"#utility.yul\":5183:5184   */\n      0x00\n        /* \"#utility.yul\":5172:5181   */\n      dup4\n        /* \"#utility.yul\":5168:5185   */\n      add\n        /* \"#utility.yul\":5159:5165   */\n      dup5\n        /* \"#utility.yul\":5069:5186   */\n      tag_91\n      jump\t// in\n    tag_159:\n        /* \"#utility.yul\":4878:5193   */\n      swap3\n      swap2\n      pop\n      pop\n      jump\t// out\n        /* \"#utility.yul\":5199:5358   */\n    tag_92:\n        /* \"#utility.yul\":5339:5350   */\n      0x666f7272626974656e0000000000000000000000000000000000000000000000\n        /* \"#utility.yul\":5335:5336   */\n      0x00\n        /* \"#utility.yul\":5327:5333   */\n      dup3\n        /* \"#utility.yul\":5323:5337   */\n      add\n        /* \"#utility.yul\":5316:5351   */\n      mstore\n        /* \"#utility.yul\":5199:5358   */\n      pop\n      jump\t// out\n        /* \"#utility.yul\":5364:5729   */\n    tag_93:\n        /* \"#utility.yul\":5506:5509   */\n      0x00\n        /* \"#utility.yul\":5527:5593   */\n      tag_162\n        /* \"#utility.yul\":5591:5592   */\n      0x09\n        /* \"#utility.yul\":5586:5589   */\n      dup4\n        /* \"#utility.yul\":5527:5593   */\n      tag_78\n      jump\t// in\n    tag_162:\n        /* \"#utility.yul\":5520:5593   */\n      swap2\n      pop\n        /* \"#utility.yul\":5602:5695   */\n      tag_163\n        /* \"#utility.yul\":5691:5694   */\n      dup3\n        /* \"#utility.yul\":5602:5695   */\n      tag_92\n      jump\t// in\n    tag_163:\n        /* \"#utility.yul\":5720:5722   */\n      0x20\n        /* \"#utility.yul\":5715:5718   */\n      dup3\n        /* \"#utility.yul\":5711:5723   */\n      add\n        /* \"#utility.yul\":5704:5723   */\n      swap1\n      pop\n        /* \"#utility.yul\":5364:5729   */\n      swap2\n      swap1\n      pop\n      jump\t// out\n        /* \"#utility.yul\":5735:6154   */\n    tag_40:\n        /* \"#utility.yul\":5901:5905   */\n      0x00\n        /* \"#utility.yul\":5939:5941   */\n      0x20\n        /* \"#utility.yul\":5928:5937   */\n      dup3\n        /* \"#utility.yul\":5924:5942   */\n      add\n        /* \"#utility.yul\":5916:5942   */\n      swap1\n      pop\n        /* \"#utility.yul\":5988:5997   */\n      dup2\n        /* \"#utility.yul\":5982:5986   */\n      dup2\n        /* \"#utility.yul\":5978:5998   */\n      sub\n        /* \"#utility.yul\":5974:5975   */\n      0x00\n        /* \"#utility.yul\":5963:5972   */\n      dup4\n        /* \"#utility.yul\":5959:5976   */\n      add\n        /* \"#utility.yul\":5952:5999   */\n      mstore\n        /* \"#utility.yul\":6016:6147   */\n      tag_165\n        /* \"#utility.yul\":6142:6146   */\n      dup2\n        /* \"#utility.yul\":6016:6147   */\n      tag_93\n      jump\t// in\n    tag_165:\n        /* \"#utility.yul\":6008:6147   */\n      swap1\n      pop\n        /* \"#utility.yul\":5735:6154   */\n      swap2\n      swap1\n      pop\n      jump\t// out\n        /* \"#utility.yul\":6160:6326   */\n    tag_94:\n        /* \"#utility.yul\":6300:6318   */\n      0x4e6f7420656e6f756768206d6f6e657900000000000000000000000000000000\n        /* \"#utility.yul\":6296:6297   */\n      0x00\n        /* \"#utility.yul\":6288:6294   */\n      dup3\n        /* \"#utility.yul\":6284:6298   */\n      add\n        /* \"#utility.yul\":6277:6319   */\n      mstore\n        /* \"#utility.yul\":6160:6326   */\n      pop\n      jump\t// out\n        /* \"#utility.yul\":6332:6698   */\n    tag_95:\n        /* \"#utility.yul\":6474:6477   */\n      0x00\n        /* \"#utility.yul\":6495:6562   */\n      tag_168\n        /* \"#utility.yul\":6559:6561   */\n      0x10\n        /* \"#utility.yul\":6554:6557   */\n      dup4\n        /* \"#utility.yul\":6495:6562   */\n      tag_78\n      jump\t// in\n    tag_168:\n        /* \"#utility.yul\":6488:6562   */\n      swap2\n      pop\n        /* \"#utility.yul\":6571:6664   */\n      tag_169\n        /* \"#utility.yul\":6660:6663   */\n      dup3\n        /* \"#utility.yul\":6571:6664   */\n      tag_94\n      jump\t// in\n    tag_169:\n        /* \"#utility.yul\":6689:6691   */\n      0x20\n        /* \"#utility.yul\":6684:6687   */\n      dup3\n        /* \"#utility.yul\":6680:6692   */\n      add\n        /* \"#utility.yul\":6673:6692   */\n      swap1\n      pop\n        /* \"#utility.yul\":6332:6698   */\n      swap2\n      swap1\n      pop\n      jump\t// out\n        /* \"#utility.yul\":6704:7123   */\n    tag_45:\n        /* \"#utility.yul\":6870:6874   */\n      0x00\n        /* \"#utility.yul\":6908:6910   */\n      0x20\n        /* \"#utility.yul\":6897:6906   */\n      dup3\n        /* \"#utility.yul\":6893:6911   */\n      add\n        /* \"#utility.yul\":6885:6911   */\n      swap1\n      pop\n        /* \"#utility.yul\":6957:6966   */\n      dup2\n        /* \"#utility.yul\":6951:6955   */\n      dup2\n        /* \"#utility.yul\":6947:6967   */\n      sub\n        /* \"#utility.yul\":6943:6944   */\n      0x00\n        /* \"#utility.yul\":6932:6941   */\n      dup4\n        /* \"#utility.yul\":6928:6945   */\n      add\n        /* \"#utility.yul\":6921:6968   */\n      mstore\n        /* \"#utility.yul\":6985:7116   */\n      tag_171\n        /* \"#utility.yul\":7111:7115   */\n      dup2\n        /* \"#utility.yul\":6985:7116   */\n      tag_95\n      jump\t// in\n    tag_171:\n        /* \"#utility.yul\":6977:7116   */\n      swap1\n      pop\n        /* \"#utility.yul\":6704:7123   */\n      swap2\n      swap1\n      pop\n      jump\t// out\n        /* \"#utility.yul\":7129:7288   */\n    tag_96:\n        /* \"#utility.yul\":7269:7280   */\n      0x4e6f74206f776e65720000000000000000000000000000000000000000000000\n        /* \"#utility.yul\":7265:7266   */\n      0x00\n        /* \"#utility.yul\":7257:7263   */\n      dup3\n        /* \"#utility.yul\":7253:7267   */\n      add\n        /* \"#utility.yul\":7246:7281   */\n      mstore\n        /* \"#utility.yul\":7129:7288   */\n      pop\n      jump\t// out\n        /* \"#utility.yul\":7294:7659   */\n    tag_97:\n        /* \"#utility.yul\":7436:7439   */\n      0x00\n        /* \"#utility.yul\":7457:7523   */\n      tag_174\n        /* \"#utility.yul\":7521:7522   */\n      0x09\n        /* \"#utility.yul\":7516:7519   */\n      dup4\n        /* \"#utility.yul\":7457:7523   */\n      tag_78\n      jump\t// in\n    tag_174:\n        /* \"#utility.yul\":7450:7523   */\n      swap2\n      pop\n        /* \"#utility.yul\":7532:7625   */\n      tag_175\n        /* \"#utility.yul\":7621:7624   */\n      dup3\n        /* \"#utility.yul\":7532:7625   */\n      tag_96\n      jump\t// in\n    tag_175:\n        /* \"#utility.yul\":7650:7652   */\n      0x20\n        /* \"#utility.yul\":7645:7648   */\n      dup3\n        /* \"#utility.yul\":7641:7653   */\n      add\n        /* \"#utility.yul\":7634:7653   */\n      swap1\n      pop\n        /* \"#utility.yul\":7294:7659   */\n      swap2\n      swap1\n      pop\n      jump\t// out\n        /* \"#utility.yul\":7665:8084   */\n    tag_51:\n        /* \"#utility.yul\":7831:7835   */\n      0x00\n        /* \"#utility.yul\":7869:7871   */\n      0x20\n        /* \"#utility.yul\":7858:7867   */\n      dup3\n        /* \"#utility.yul\":7854:7872   */\n      add\n        /* \"#utility.yul\":7846:7872   */\n      swap1\n      pop\n        /* \"#utility.yul\":7918:7927   */\n      dup2\n        /* \"#utility.yul\":7912:7916   */\n      dup2\n        /* \"#utility.yul\":7908:7928   */\n      sub\n        /* \"#utility.yul\":7904:7905   */\n      0x00\n        /* \"#utility.yul\":7893:7902   */\n      dup4\n        /* \"#utility.yul\":7889:7906   */\n      add\n        /* \"#utility.yul\":7882:7929   */\n      mstore\n        /* \"#utility.yul\":7946:8077   */\n      tag_177\n        /* \"#utility.yul\":8072:8076   */\n      dup2\n        /* \"#utility.yul\":7946:8077   */\n      tag_97\n      jump\t// in\n    tag_177:\n        /* \"#utility.yul\":7938:8077   */\n      swap1\n      pop\n        /* \"#utility.yul\":7665:8084   */\n      swap2\n      swap1\n      pop\n      jump\t// out\n        /* \"#utility.yul\":8090:8249   */\n    tag_98:\n        /* \"#utility.yul\":8230:8241   */\n      0x73656e74206d616e790000000000000000000000000000000000000000000000\n        /* \"#utility.yul\":8226:8227   */\n      0x00\n        /* \"#utility.yul\":8218:8224   */\n      dup3\n        /* \"#utility.yul\":8214:8228   */\n      add\n        /* \"#utility.yul\":8207:8242   */\n      mstore\n        /* \"#utility.yul\":8090:8249   */\n      pop\n      jump\t// out\n        /* \"#utility.yul\":8255:8620   */\n    tag_99:\n        /* \"#utility.yul\":8397:8400   */\n      0x00\n        /* \"#utility.yul\":8418:8484   */\n      tag_180\n        /* \"#utility.yul\":8482:8483   */\n      0x09\n        /* \"#utility.yul\":8477:8480   */\n      dup4\n        /* \"#utility.yul\":8418:8484   */\n      tag_78\n      jump\t// in\n    tag_180:\n        /* \"#utility.yul\":8411:8484   */\n      swap2\n      pop\n        /* \"#utility.yul\":8493:8586   */\n      tag_181\n        /* \"#utility.yul\":8582:8585   */\n      dup3\n        /* \"#utility.yul\":8493:8586   */\n      tag_98\n      jump\t// in\n    tag_181:\n        /* \"#utility.yul\":8611:8613   */\n      0x20\n        /* \"#utility.yul\":8606:8609   */\n      dup3\n        /* \"#utility.yul\":8602:8614   */\n      add\n        /* \"#utility.yul\":8595:8614   */\n      swap1\n      pop\n        /* \"#utility.yul\":8255:8620   */\n      swap2\n      swap1\n      pop\n      jump\t// out\n        /* \"#utility.yul\":8626:8741   */\n    tag_100:\n        /* \"#utility.yul\":8711:8734   */\n      tag_183\n        /* \"#utility.yul\":8728:8733   */\n      dup2\n        /* \"#utility.yul\":8711:8734   */\n      tag_74\n      jump\t// in\n    tag_183:\n        /* \"#utility.yul\":8706:8709   */\n      dup3\n        /* \"#utility.yul\":8699:8735   */\n      mstore\n        /* \"#utility.yul\":8626:8741   */\n      pop\n      pop\n      jump\t// out\n        /* \"#utility.yul\":8747:9382   */\n    tag_54:\n        /* \"#utility.yul\":8967:8971   */\n      0x00\n        /* \"#utility.yul\":9005:9007   */\n      0x60\n        /* \"#utility.yul\":8994:9003   */\n      dup3\n        /* \"#utility.yul\":8990:9008   */\n      add\n        /* \"#utility.yul\":8982:9008   */\n      swap1\n      pop\n        /* \"#utility.yul\":9018:9089   */\n      tag_185\n        /* \"#utility.yul\":9086:9087   */\n      0x00\n        /* \"#utility.yul\":9075:9084   */\n      dup4\n        /* \"#utility.yul\":9071:9088   */\n      add\n        /* \"#utility.yul\":9062:9068   */\n      dup6\n        /* \"#utility.yul\":9018:9089   */\n      tag_83\n      jump\t// in\n    tag_185:\n        /* \"#utility.yul\":9136:9145   */\n      dup2\n        /* \"#utility.yul\":9130:9134   */\n      dup2\n        /* \"#utility.yul\":9126:9146   */\n      sub\n        /* \"#utility.yul\":9121:9123   */\n      0x20\n        /* \"#utility.yul\":9110:9119   */\n      dup4\n        /* \"#utility.yul\":9106:9124   */\n      add\n        /* \"#utility.yul\":9099:9147   */\n      mstore\n        /* \"#utility.yul\":9164:9295   */\n      tag_186\n        /* \"#utility.yul\":9290:9294   */\n      dup2\n        /* \"#utility.yul\":9164:9295   */\n      tag_99\n      jump\t// in\n    tag_186:\n        /* \"#utility.yul\":9156:9295   */\n      swap1\n      pop\n        /* \"#utility.yul\":9305:9375   */\n      tag_187\n        /* \"#utility.yul\":9371:9373   */\n      0x40\n        /* \"#utility.yul\":9360:9369   */\n      dup4\n        /* \"#utility.yul\":9356:9374   */\n      add\n        /* \"#utility.yul\":9347:9353   */\n      dup5\n        /* \"#utility.yul\":9305:9375   */\n      tag_100\n      jump\t// in\n    tag_187:\n        /* \"#utility.yul\":8747:9382   */\n      swap4\n      swap3\n      pop\n      pop\n      pop\n      jump\t// out\n        /* \"#utility.yul\":9388:9506   */\n    tag_101:\n        /* \"#utility.yul\":9475:9499   */\n      tag_189\n        /* \"#utility.yul\":9493:9498   */\n      dup2\n        /* \"#utility.yul\":9475:9499   */\n      tag_88\n      jump\t// in\n    tag_189:\n        /* \"#utility.yul\":9470:9473   */\n      dup3\n        /* \"#utility.yul\":9463:9500   */\n      mstore\n        /* \"#utility.yul\":9388:9506   */\n      pop\n      pop\n      jump\t// out\n        /* \"#utility.yul\":9512:10057   */\n    tag_70:\n        /* \"#utility.yul\":9685:9689   */\n      0x00\n        /* \"#utility.yul\":9723:9726   */\n      0x80\n        /* \"#utility.yul\":9712:9721   */\n      dup3\n        /* \"#utility.yul\":9708:9727   */\n      add\n        /* \"#utility.yul\":9700:9727   */\n      swap1\n      pop\n        /* \"#utility.yul\":9737:9806   */\n      tag_191\n        /* \"#utility.yul\":9803:9804   */\n      0x00\n        /* \"#utility.yul\":9792:9801   */\n      dup4\n        /* \"#utility.yul\":9788:9805   */\n      add\n        /* \"#utility.yul\":9779:9785   */\n      dup8\n        /* \"#utility.yul\":9737:9806   */\n      tag_100\n      jump\t// in\n    tag_191:\n        /* \"#utility.yul\":9816:9888   */\n      tag_192\n        /* \"#utility.yul\":9884:9886   */\n      0x20\n        /* \"#utility.yul\":9873:9882   */\n      dup4\n        /* \"#utility.yul\":9869:9887   */\n      add\n        /* \"#utility.yul\":9860:9866   */\n      dup7\n        /* \"#utility.yul\":9816:9888   */\n      tag_101\n      jump\t// in\n    tag_192:\n        /* \"#utility.yul\":9898:9970   */\n      tag_193\n        /* \"#utility.yul\":9966:9968   */\n      0x40\n        /* \"#utility.yul\":9955:9964   */\n      dup4\n        /* \"#utility.yul\":9951:9969   */\n      add\n        /* \"#utility.yul\":9942:9948   */\n      dup6\n        /* \"#utility.yul\":9898:9970   */\n      tag_83\n      jump\t// in\n    tag_193:\n        /* \"#utility.yul\":9980:10050   */\n      tag_194\n        /* \"#utility.yul\":10046:10048   */\n      0x60\n        /* \"#utility.yul\":10035:10044   */\n      dup4\n        /* \"#utility.yul\":10031:10049   */\n      add\n        /* \"#utility.yul\":10022:10028   */\n      dup5\n        /* \"#utility.yul\":9980:10050   */\n      tag_100\n      jump\t// in\n    tag_194:\n        /* \"#utility.yul\":9512:10057   */\n      swap6\n      swap5\n      pop\n      pop\n      pop\n      pop\n      pop\n      jump\t// out\n\n    auxdata: 0xa26469706673582212209f344363d79edcf328c8ff7475cf7259f3f93590d5f35e6087b3eead117d685e64736f6c63430008160033\n}\n",
				"bytecode": {
					"linkReferences": {},
					"object": "608060405234801561000f575f80fd5b50335f806101000a81548173ffffffffffffffffffffffffffffffffffffffff021916908373ffffffffffffffffffffffffffffffffffffffff160217905550610c078061005c5f395ff3fe608060405260043610610054575f3560e01c806307cb2d75146100585780632193cdba14610094578063722713f7146100aa578063c5fc77bf146100d4578063d6c9cf90146100fc578063e1457faf14610138575b5f80fd5b348015610063575f80fd5b5061007e60048036038101906100799190610790565b610154565b60405161008b9190610845565b60405180910390f35b34801561009f575f80fd5b506100a861031e565b005b3480156100b5575f80fd5b506100be61044e565b6040516100cb919061087d565b60405180910390f35b3480156100df575f80fd5b506100fa60048036038101906100f591906108c0565b610455565b005b348015610107575f80fd5b50610122600480360381019061011d9190610790565b610581565b60405161012f919061099b565b60405180910390f35b610152600480360381019061014d9190610790565b61061e565b005b60603373ffffffffffffffffffffffffffffffffffffffff165f8054906101000a900473ffffffffffffffffffffffffffffffffffffffff1673ffffffffffffffffffffffffffffffffffffffff16146101e3576040517f08c379a00000000000000000000000000000000000000000000000000000000081526004016101da906109fe565b60405180910390fd5b5f6101ed83610581565b90505f6101f861044e565b905080826040015110610240576040517f08c379a000000000000000000000000000000000000000000000000000000000815260040161023790610a66565b60405180910390fd5b5f8260200151905060015f8681526020019081526020015f205f8082015f9055600182015f6101000a81549073ffffffffffffffffffffffffffffffffffffffff0219169055600282015f9055600382015f905550508073ffffffffffffffffffffffffffffffffffffffff166108fc846040015190811502906040515f60405180830381858888f193505050501580156102dd573d5f803e3d5ffd5b506040518060400160405280600281526020017f6f6b0000000000000000000000000000000000000000000000000000000000008152509350505050919050565b3373ffffffffffffffffffffffffffffffffffffffff165f8054906101000a900473ffffffffffffffffffffffffffffffffffffffff1673ffffffffffffffffffffffffffffffffffffffff16036103ab576040517f08c379a00000000000000000000000000000000000000000000000000000000081526004016103a290610ace565b60405180910390fd5b5f4790507f9182d0d980be49b7a83210a5ebef5acd99931488ad53607e98527fa23f8e0a2b81426040516103e0929190610b45565b60405180910390a15f8054906101000a900473ffffffffffffffffffffffffffffffffffffffff1673ffffffffffffffffffffffffffffffffffffffff166108fc8290811502906040515f60405180830381858888f1935050505015801561044a573d5f803e3d5ffd5b5050565b5f47905090565b3373ffffffffffffffffffffffffffffffffffffffff165f8054906101000a900473ffffffffffffffffffffffffffffffffffffffff1673ffffffffffffffffffffffffffffffffffffffff16036104e2576040517f08c379a00000000000000000000000000000000000000000000000000000000081526004016104d990610ace565b60405180910390fd5b7f9182d0d980be49b7a83210a5ebef5acd99931488ad53607e98527fa23f8e0a2b8142604051610513929190610b45565b60405180910390a15f8054906101000a900473ffffffffffffffffffffffffffffffffffffffff1673ffffffffffffffffffffffffffffffffffffffff166108fc8290811502906040515f60405180830381858888f1935050505015801561057d573d5f803e3d5ffd5b5050565b61058961071f565b60015f8381526020019081526020015f206040518060800160405290815f8201548152602001600182015f9054906101000a900473ffffffffffffffffffffffffffffffffffffffff1673ffffffffffffffffffffffffffffffffffffffff1673ffffffffffffffffffffffffffffffffffffffff168152602001600282015481526020016003820154815250509050919050565b5f3390505f3490505f4290507f551b11895d5bb630ed46268308636d2c125a772e97c8a5e564805977feda339d8484848460405161065f9493929190610b8e565b60405180910390a15f60405180608001604052808681526020018573ffffffffffffffffffffffffffffffffffffffff1681526020018481526020018381525090508060015f8781526020019081526020015f205f820151815f01556020820151816001015f6101000a81548173ffffffffffffffffffffffffffffffffffffffff021916908373ffffffffffffffffffffffffffffffffffffffff16021790555060408201518160020155606082015181600301559050505050505050565b60405180608001604052805f81526020015f73ffffffffffffffffffffffffffffffffffffffff1681526020015f81526020015f81525090565b5f80fd5b5f819050919050565b61076f8161075d565b8114610779575f80fd5b50565b5f8135905061078a81610766565b92915050565b5f602082840312156107a5576107a4610759565b5b5f6107b28482850161077c565b91505092915050565b5f81519050919050565b5f82825260208201905092915050565b5f5b838110156107f25780820151818401526020810190506107d7565b5f8484015250505050565b5f601f19601f8301169050919050565b5f610817826107bb565b61082181856107c5565b93506108318185602086016107d5565b61083a816107fd565b840191505092915050565b5f6020820190508181035f83015261085d818461080d565b905092915050565b5f819050919050565b61087781610865565b82525050565b5f6020820190506108905f83018461086e565b92915050565b61089f81610865565b81146108a9575f80fd5b50565b5f813590506108ba81610896565b92915050565b5f602082840312156108d5576108d4610759565b5b5f6108e2848285016108ac565b91505092915050565b6108f48161075d565b82525050565b5f73ffffffffffffffffffffffffffffffffffffffff82169050919050565b5f610923826108fa565b9050919050565b61093381610919565b82525050565b61094281610865565b82525050565b608082015f82015161095c5f8501826108eb565b50602082015161096f602085018261092a565b5060408201516109826040850182610939565b50606082015161099560608501826108eb565b50505050565b5f6080820190506109ae5f830184610948565b92915050565b7f666f7272626974656e00000000000000000000000000000000000000000000005f82015250565b5f6109e86009836107c5565b91506109f3826109b4565b602082019050919050565b5f6020820190508181035f830152610a15816109dc565b9050919050565b7f4e6f7420656e6f756768206d6f6e6579000000000000000000000000000000005f82015250565b5f610a506010836107c5565b9150610a5b82610a1c565b602082019050919050565b5f6020820190508181035f830152610a7d81610a44565b9050919050565b7f4e6f74206f776e657200000000000000000000000000000000000000000000005f82015250565b5f610ab86009836107c5565b9150610ac382610a84565b602082019050919050565b5f6020820190508181035f830152610ae581610aac565b9050919050565b7f73656e74206d616e7900000000000000000000000000000000000000000000005f82015250565b5f610b206009836107c5565b9150610b2b82610aec565b602082019050919050565b610b3f8161075d565b82525050565b5f606082019050610b585f83018561086e565b8181036020830152610b6981610b14565b9050610b786040830184610b36565b9392505050565b610b8881610919565b82525050565b5f608082019050610ba15f830187610b36565b610bae6020830186610b7f565b610bbb604083018561086e565b610bc86060830184610b36565b9594505050505056fea26469706673582212209f344363d79edcf328c8ff7475cf7259f3f93590d5f35e6087b3eead117d685e64736f6c63430008160033",
					"opcodes": "PUSH1 0x80 PUSH1 0x40 MSTORE CALLVALUE DUP1 ISZERO PUSH2 0xF JUMPI PUSH0 DUP1 REVERT JUMPDEST POP CALLER PUSH0 DUP1 PUSH2 0x100 EXP DUP2 SLOAD DUP2 PUSH20 0xFFFFFFFFFFFFFFFFFFFFFFFFFFFFFFFFFFFFFFFF MUL NOT AND SWAP1 DUP4 PUSH20 0xFFFFFFFFFFFFFFFFFFFFFFFFFFFFFFFFFFFFFFFF AND MUL OR SWAP1 SSTORE POP PUSH2 0xC07 DUP1 PUSH2 0x5C PUSH0 CODECOPY PUSH0 RETURN INVALID PUSH1 0x80 PUSH1 0x40 MSTORE PUSH1 0x4 CALLDATASIZE LT PUSH2 0x54 JUMPI PUSH0 CALLDATALOAD PUSH1 0xE0 SHR DUP1 PUSH4 0x7CB2D75 EQ PUSH2 0x58 JUMPI DUP1 PUSH4 0x2193CDBA EQ PUSH2 0x94 JUMPI DUP1 PUSH4 0x722713F7 EQ PUSH2 0xAA JUMPI DUP1 PUSH4 0xC5FC77BF EQ PUSH2 0xD4 JUMPI DUP1 PUSH4 0xD6C9CF90 EQ PUSH2 0xFC JUMPI DUP1 PUSH4 0xE1457FAF EQ PUSH2 0x138 JUMPI JUMPDEST PUSH0 DUP1 REVERT JUMPDEST CALLVALUE DUP1 ISZERO PUSH2 0x63 JUMPI PUSH0 DUP1 REVERT JUMPDEST POP PUSH2 0x7E PUSH1 0x4 DUP1 CALLDATASIZE SUB DUP2 ADD SWAP1 PUSH2 0x79 SWAP2 SWAP1 PUSH2 0x790 JUMP JUMPDEST PUSH2 0x154 JUMP JUMPDEST PUSH1 0x40 MLOAD PUSH2 0x8B SWAP2 SWAP1 PUSH2 0x845 JUMP JUMPDEST PUSH1 0x40 MLOAD DUP1 SWAP2 SUB SWAP1 RETURN JUMPDEST CALLVALUE DUP1 ISZERO PUSH2 0x9F JUMPI PUSH0 DUP1 REVERT JUMPDEST POP PUSH2 0xA8 PUSH2 0x31E JUMP JUMPDEST STOP JUMPDEST CALLVALUE DUP1 ISZERO PUSH2 0xB5 JUMPI PUSH0 DUP1 REVERT JUMPDEST POP PUSH2 0xBE PUSH2 0x44E JUMP JUMPDEST PUSH1 0x40 MLOAD PUSH2 0xCB SWAP2 SWAP1 PUSH2 0x87D JUMP JUMPDEST PUSH1 0x40 MLOAD DUP1 SWAP2 SUB SWAP1 RETURN JUMPDEST CALLVALUE DUP1 ISZERO PUSH2 0xDF JUMPI PUSH0 DUP1 REVERT JUMPDEST POP PUSH2 0xFA PUSH1 0x4 DUP1 CALLDATASIZE SUB DUP2 ADD SWAP1 PUSH2 0xF5 SWAP2 SWAP1 PUSH2 0x8C0 JUMP JUMPDEST PUSH2 0x455 JUMP JUMPDEST STOP JUMPDEST CALLVALUE DUP1 ISZERO PUSH2 0x107 JUMPI PUSH0 DUP1 REVERT JUMPDEST POP PUSH2 0x122 PUSH1 0x4 DUP1 CALLDATASIZE SUB DUP2 ADD SWAP1 PUSH2 0x11D SWAP2 SWAP1 PUSH2 0x790 JUMP JUMPDEST PUSH2 0x581 JUMP JUMPDEST PUSH1 0x40 MLOAD PUSH2 0x12F SWAP2 SWAP1 PUSH2 0x99B JUMP JUMPDEST PUSH1 0x40 MLOAD DUP1 SWAP2 SUB SWAP1 RETURN JUMPDEST PUSH2 0x152 PUSH1 0x4 DUP1 CALLDATASIZE SUB DUP2 ADD SWAP1 PUSH2 0x14D SWAP2 SWAP1 PUSH2 0x790 JUMP JUMPDEST PUSH2 0x61E JUMP JUMPDEST STOP JUMPDEST PUSH1 0x60 CALLER PUSH20 0xFFFFFFFFFFFFFFFFFFFFFFFFFFFFFFFFFFFFFFFF AND PUSH0 DUP1 SLOAD SWAP1 PUSH2 0x100 EXP SWAP1 DIV PUSH20 0xFFFFFFFFFFFFFFFFFFFFFFFFFFFFFFFFFFFFFFFF AND PUSH20 0xFFFFFFFFFFFFFFFFFFFFFFFFFFFFFFFFFFFFFFFF AND EQ PUSH2 0x1E3 JUMPI PUSH1 0x40 MLOAD PUSH32 0x8C379A000000000000000000000000000000000000000000000000000000000 DUP2 MSTORE PUSH1 0x4 ADD PUSH2 0x1DA SWAP1 PUSH2 0x9FE JUMP JUMPDEST PUSH1 0x40 MLOAD DUP1 SWAP2 SUB SWAP1 REVERT JUMPDEST PUSH0 PUSH2 0x1ED DUP4 PUSH2 0x581 JUMP JUMPDEST SWAP1 POP PUSH0 PUSH2 0x1F8 PUSH2 0x44E JUMP JUMPDEST SWAP1 POP DUP1 DUP3 PUSH1 0x40 ADD MLOAD LT PUSH2 0x240 JUMPI PUSH1 0x40 MLOAD PUSH32 0x8C379A000000000000000000000000000000000000000000000000000000000 DUP2 MSTORE PUSH1 0x4 ADD PUSH2 0x237 SWAP1 PUSH2 0xA66 JUMP JUMPDEST PUSH1 0x40 MLOAD DUP1 SWAP2 SUB SWAP1 REVERT JUMPDEST PUSH0 DUP3 PUSH1 0x20 ADD MLOAD SWAP1 POP PUSH1 0x1 PUSH0 DUP7 DUP2 MSTORE PUSH1 0x20 ADD SWAP1 DUP2 MSTORE PUSH1 0x20 ADD PUSH0 KECCAK256 PUSH0 DUP1 DUP3 ADD PUSH0 SWAP1 SSTORE PUSH1 0x1 DUP3 ADD PUSH0 PUSH2 0x100 EXP DUP2 SLOAD SWAP1 PUSH20 0xFFFFFFFFFFFFFFFFFFFFFFFFFFFFFFFFFFFFFFFF MUL NOT AND SWAP1 SSTORE PUSH1 0x2 DUP3 ADD PUSH0 SWAP1 SSTORE PUSH1 0x3 DUP3 ADD PUSH0 SWAP1 SSTORE POP POP DUP1 PUSH20 0xFFFFFFFFFFFFFFFFFFFFFFFFFFFFFFFFFFFFFFFF AND PUSH2 0x8FC DUP5 PUSH1 0x40 ADD MLOAD SWAP1 DUP2 ISZERO MUL SWAP1 PUSH1 0x40 MLOAD PUSH0 PUSH1 0x40 MLOAD DUP1 DUP4 SUB DUP2 DUP6 DUP9 DUP9 CALL SWAP4 POP POP POP POP ISZERO DUP1 ISZERO PUSH2 0x2DD JUMPI RETURNDATASIZE PUSH0 DUP1 RETURNDATACOPY RETURNDATASIZE PUSH0 REVERT JUMPDEST POP PUSH1 0x40 MLOAD DUP1 PUSH1 0x40 ADD PUSH1 0x40 MSTORE DUP1 PUSH1 0x2 DUP2 MSTORE PUSH1 0x20 ADD PUSH32 0x6F6B000000000000000000000000000000000000000000000000000000000000 DUP2 MSTORE POP SWAP4 POP POP POP POP SWAP2 SWAP1 POP JUMP JUMPDEST CALLER PUSH20 0xFFFFFFFFFFFFFFFFFFFFFFFFFFFFFFFFFFFFFFFF AND PUSH0 DUP1 SLOAD SWAP1 PUSH2 0x100 EXP SWAP1 DIV PUSH20 0xFFFFFFFFFFFFFFFFFFFFFFFFFFFFFFFFFFFFFFFF AND PUSH20 0xFFFFFFFFFFFFFFFFFFFFFFFFFFFFFFFFFFFFFFFF AND SUB PUSH2 0x3AB JUMPI PUSH1 0x40 MLOAD PUSH32 0x8C379A000000000000000000000000000000000000000000000000000000000 DUP2 MSTORE PUSH1 0x4 ADD PUSH2 0x3A2 SWAP1 PUSH2 0xACE JUMP JUMPDEST PUSH1 0x40 MLOAD DUP1 SWAP2 SUB SWAP1 REVERT JUMPDEST PUSH0 SELFBALANCE SWAP1 POP PUSH32 0x9182D0D980BE49B7A83210A5EBEF5ACD99931488AD53607E98527FA23F8E0A2B DUP2 TIMESTAMP PUSH1 0x40 MLOAD PUSH2 0x3E0 SWAP3 SWAP2 SWAP1 PUSH2 0xB45 JUMP JUMPDEST PUSH1 0x40 MLOAD DUP1 SWAP2 SUB SWAP1 LOG1 PUSH0 DUP1 SLOAD SWAP1 PUSH2 0x100 EXP SWAP1 DIV PUSH20 0xFFFFFFFFFFFFFFFFFFFFFFFFFFFFFFFFFFFFFFFF AND PUSH20 0xFFFFFFFFFFFFFFFFFFFFFFFFFFFFFFFFFFFFFFFF AND PUSH2 0x8FC DUP3 SWAP1 DUP2 ISZERO MUL SWAP1 PUSH1 0x40 MLOAD PUSH0 PUSH1 0x40 MLOAD DUP1 DUP4 SUB DUP2 DUP6 DUP9 DUP9 CALL SWAP4 POP POP POP POP ISZERO DUP1 ISZERO PUSH2 0x44A JUMPI RETURNDATASIZE PUSH0 DUP1 RETURNDATACOPY RETURNDATASIZE PUSH0 REVERT JUMPDEST POP POP JUMP JUMPDEST PUSH0 SELFBALANCE SWAP1 POP SWAP1 JUMP JUMPDEST CALLER PUSH20 0xFFFFFFFFFFFFFFFFFFFFFFFFFFFFFFFFFFFFFFFF AND PUSH0 DUP1 SLOAD SWAP1 PUSH2 0x100 EXP SWAP1 DIV PUSH20 0xFFFFFFFFFFFFFFFFFFFFFFFFFFFFFFFFFFFFFFFF AND PUSH20 0xFFFFFFFFFFFFFFFFFFFFFFFFFFFFFFFFFFFFFFFF AND SUB PUSH2 0x4E2 JUMPI PUSH1 0x40 MLOAD PUSH32 0x8C379A000000000000000000000000000000000000000000000000000000000 DUP2 MSTORE PUSH1 0x4 ADD PUSH2 0x4D9 SWAP1 PUSH2 0xACE JUMP JUMPDEST PUSH1 0x40 MLOAD DUP1 SWAP2 SUB SWAP1 REVERT JUMPDEST PUSH32 0x9182D0D980BE49B7A83210A5EBEF5ACD99931488AD53607E98527FA23F8E0A2B DUP2 TIMESTAMP PUSH1 0x40 MLOAD PUSH2 0x513 SWAP3 SWAP2 SWAP1 PUSH2 0xB45 JUMP JUMPDEST PUSH1 0x40 MLOAD DUP1 SWAP2 SUB SWAP1 LOG1 PUSH0 DUP1 SLOAD SWAP1 PUSH2 0x100 EXP SWAP1 DIV PUSH20 0xFFFFFFFFFFFFFFFFFFFFFFFFFFFFFFFFFFFFFFFF AND PUSH20 0xFFFFFFFFFFFFFFFFFFFFFFFFFFFFFFFFFFFFFFFF AND PUSH2 0x8FC DUP3 SWAP1 DUP2 ISZERO MUL SWAP1 PUSH1 0x40 MLOAD PUSH0 PUSH1 0x40 MLOAD DUP1 DUP4 SUB DUP2 DUP6 DUP9 DUP9 CALL SWAP4 POP POP POP POP ISZERO DUP1 ISZERO PUSH2 0x57D JUMPI RETURNDATASIZE PUSH0 DUP1 RETURNDATACOPY RETURNDATASIZE PUSH0 REVERT JUMPDEST POP POP JUMP JUMPDEST PUSH2 0x589 PUSH2 0x71F JUMP JUMPDEST PUSH1 0x1 PUSH0 DUP4 DUP2 MSTORE PUSH1 0x20 ADD SWAP1 DUP2 MSTORE PUSH1 0x20 ADD PUSH0 KECCAK256 PUSH1 0x40 MLOAD DUP1 PUSH1 0x80 ADD PUSH1 0x40 MSTORE SWAP1 DUP2 PUSH0 DUP3 ADD SLOAD DUP2 MSTORE PUSH1 0x20 ADD PUSH1 0x1 DUP3 ADD PUSH0 SWAP1 SLOAD SWAP1 PUSH2 0x100 EXP SWAP1 DIV PUSH20 0xFFFFFFFFFFFFFFFFFFFFFFFFFFFFFFFFFFFFFFFF AND PUSH20 0xFFFFFFFFFFFFFFFFFFFFFFFFFFFFFFFFFFFFFFFF AND PUSH20 0xFFFFFFFFFFFFFFFFFFFFFFFFFFFFFFFFFFFFFFFF AND DUP2 MSTORE PUSH1 0x20 ADD PUSH1 0x2 DUP3 ADD SLOAD DUP2 MSTORE PUSH1 0x20 ADD PUSH1 0x3 DUP3 ADD SLOAD DUP2 MSTORE POP POP SWAP1 POP SWAP2 SWAP1 POP JUMP JUMPDEST PUSH0 CALLER SWAP1 POP PUSH0 CALLVALUE SWAP1 POP PUSH0 TIMESTAMP SWAP1 POP PUSH32 0x551B11895D5BB630ED46268308636D2C125A772E97C8A5E564805977FEDA339D DUP5 DUP5 DUP5 DUP5 PUSH1 0x40 MLOAD PUSH2 0x65F SWAP5 SWAP4 SWAP3 SWAP2 SWAP1 PUSH2 0xB8E JUMP JUMPDEST PUSH1 0x40 MLOAD DUP1 SWAP2 SUB SWAP1 LOG1 PUSH0 PUSH1 0x40 MLOAD DUP1 PUSH1 0x80 ADD PUSH1 0x40 MSTORE DUP1 DUP7 DUP2 MSTORE PUSH1 0x20 ADD DUP6 PUSH20 0xFFFFFFFFFFFFFFFFFFFFFFFFFFFFFFFFFFFFFFFF AND DUP2 MSTORE PUSH1 0x20 ADD DUP5 DUP2 MSTORE PUSH1 0x20 ADD DUP4 DUP2 MSTORE POP SWAP1 POP DUP1 PUSH1 0x1 PUSH0 DUP8 DUP2 MSTORE PUSH1 0x20 ADD SWAP1 DUP2 MSTORE PUSH1 0x20 ADD PUSH0 KECCAK256 PUSH0 DUP3 ADD MLOAD DUP2 PUSH0 ADD SSTORE PUSH1 0x20 DUP3 ADD MLOAD DUP2 PUSH1 0x1 ADD PUSH0 PUSH2 0x100 EXP DUP2 SLOAD DUP2 PUSH20 0xFFFFFFFFFFFFFFFFFFFFFFFFFFFFFFFFFFFFFFFF MUL NOT AND SWAP1 DUP4 PUSH20 0xFFFFFFFFFFFFFFFFFFFFFFFFFFFFFFFFFFFFFFFF AND MUL OR SWAP1 SSTORE POP PUSH1 0x40 DUP3 ADD MLOAD DUP2 PUSH1 0x2 ADD SSTORE PUSH1 0x60 DUP3 ADD MLOAD DUP2 PUSH1 0x3 ADD SSTORE SWAP1 POP POP POP POP POP POP POP JUMP JUMPDEST PUSH1 0x40 MLOAD DUP1 PUSH1 0x80 ADD PUSH1 0x40 MSTORE DUP1 PUSH0 DUP2 MSTORE PUSH1 0x20 ADD PUSH0 PUSH20 0xFFFFFFFFFFFFFFFFFFFFFFFFFFFFFFFFFFFFFFFF AND DUP2 MSTORE PUSH1 0x20 ADD PUSH0 DUP2 MSTORE PUSH1 0x20 ADD PUSH0 DUP2 MSTORE POP SWAP1 JUMP JUMPDEST PUSH0 DUP1 REVERT JUMPDEST PUSH0 DUP2 SWAP1 POP SWAP2 SWAP1 POP JUMP JUMPDEST PUSH2 0x76F DUP2 PUSH2 0x75D JUMP JUMPDEST DUP2 EQ PUSH2 0x779 JUMPI PUSH0 DUP1 REVERT JUMPDEST POP JUMP JUMPDEST PUSH0 DUP2 CALLDATALOAD SWAP1 POP PUSH2 0x78A DUP2 PUSH2 0x766 JUMP JUMPDEST SWAP3 SWAP2 POP POP JUMP JUMPDEST PUSH0 PUSH1 0x20 DUP3 DUP5 SUB SLT ISZERO PUSH2 0x7A5 JUMPI PUSH2 0x7A4 PUSH2 0x759 JUMP JUMPDEST JUMPDEST PUSH0 PUSH2 0x7B2 DUP5 DUP3 DUP6 ADD PUSH2 0x77C JUMP JUMPDEST SWAP2 POP POP SWAP3 SWAP2 POP POP JUMP JUMPDEST PUSH0 DUP2 MLOAD SWAP1 POP SWAP2 SWAP1 POP JUMP JUMPDEST PUSH0 DUP3 DUP3 MSTORE PUSH1 0x20 DUP3 ADD SWAP1 POP SWAP3 SWAP2 POP POP JUMP JUMPDEST PUSH0 JUMPDEST DUP4 DUP2 LT ISZERO PUSH2 0x7F2 JUMPI DUP1 DUP3 ADD MLOAD DUP2 DUP5 ADD MSTORE PUSH1 0x20 DUP2 ADD SWAP1 POP PUSH2 0x7D7 JUMP JUMPDEST PUSH0 DUP5 DUP5 ADD MSTORE POP POP POP POP JUMP JUMPDEST PUSH0 PUSH1 0x1F NOT PUSH1 0x1F DUP4 ADD AND SWAP1 POP SWAP2 SWAP1 POP JUMP JUMPDEST PUSH0 PUSH2 0x817 DUP3 PUSH2 0x7BB JUMP JUMPDEST PUSH2 0x821 DUP2 DUP6 PUSH2 0x7C5 JUMP JUMPDEST SWAP4 POP PUSH2 0x831 DUP2 DUP6 PUSH1 0x20 DUP7 ADD PUSH2 0x7D5 JUMP JUMPDEST PUSH2 0x83A DUP2 PUSH2 0x7FD JUMP JUMPDEST DUP5 ADD SWAP2 POP POP SWAP3 SWAP2 POP POP JUMP JUMPDEST PUSH0 PUSH1 0x20 DUP3 ADD SWAP1 POP DUP2 DUP2 SUB PUSH0 DUP4 ADD MSTORE PUSH2 0x85D DUP2 DUP5 PUSH2 0x80D JUMP JUMPDEST SWAP1 POP SWAP3 SWAP2 POP POP JUMP JUMPDEST PUSH0 DUP2 SWAP1 POP SWAP2 SWAP1 POP JUMP JUMPDEST PUSH2 0x877 DUP2 PUSH2 0x865 JUMP JUMPDEST DUP3 MSTORE POP POP JUMP JUMPDEST PUSH0 PUSH1 0x20 DUP3 ADD SWAP1 POP PUSH2 0x890 PUSH0 DUP4 ADD DUP5 PUSH2 0x86E JUMP JUMPDEST SWAP3 SWAP2 POP POP JUMP JUMPDEST PUSH2 0x89F DUP2 PUSH2 0x865 JUMP JUMPDEST DUP2 EQ PUSH2 0x8A9 JUMPI PUSH0 DUP1 REVERT JUMPDEST POP JUMP JUMPDEST PUSH0 DUP2 CALLDATALOAD SWAP1 POP PUSH2 0x8BA DUP2 PUSH2 0x896 JUMP JUMPDEST SWAP3 SWAP2 POP POP JUMP JUMPDEST PUSH0 PUSH1 0x20 DUP3 DUP5 SUB SLT ISZERO PUSH2 0x8D5 JUMPI PUSH2 0x8D4 PUSH2 0x759 JUMP JUMPDEST JUMPDEST PUSH0 PUSH2 0x8E2 DUP5 DUP3 DUP6 ADD PUSH2 0x8AC JUMP JUMPDEST SWAP2 POP POP SWAP3 SWAP2 POP POP JUMP JUMPDEST PUSH2 0x8F4 DUP2 PUSH2 0x75D JUMP JUMPDEST DUP3 MSTORE POP POP JUMP JUMPDEST PUSH0 PUSH20 0xFFFFFFFFFFFFFFFFFFFFFFFFFFFFFFFFFFFFFFFF DUP3 AND SWAP1 POP SWAP2 SWAP1 POP JUMP JUMPDEST PUSH0 PUSH2 0x923 DUP3 PUSH2 0x8FA JUMP JUMPDEST SWAP1 POP SWAP2 SWAP1 POP JUMP JUMPDEST PUSH2 0x933 DUP2 PUSH2 0x919 JUMP JUMPDEST DUP3 MSTORE POP POP JUMP JUMPDEST PUSH2 0x942 DUP2 PUSH2 0x865 JUMP JUMPDEST DUP3 MSTORE POP POP JUMP JUMPDEST PUSH1 0x80 DUP3 ADD PUSH0 DUP3 ADD MLOAD PUSH2 0x95C PUSH0 DUP6 ADD DUP3 PUSH2 0x8EB JUMP JUMPDEST POP PUSH1 0x20 DUP3 ADD MLOAD PUSH2 0x96F PUSH1 0x20 DUP6 ADD DUP3 PUSH2 0x92A JUMP JUMPDEST POP PUSH1 0x40 DUP3 ADD MLOAD PUSH2 0x982 PUSH1 0x40 DUP6 ADD DUP3 PUSH2 0x939 JUMP JUMPDEST POP PUSH1 0x60 DUP3 ADD MLOAD PUSH2 0x995 PUSH1 0x60 DUP6 ADD DUP3 PUSH2 0x8EB JUMP JUMPDEST POP POP POP POP JUMP JUMPDEST PUSH0 PUSH1 0x80 DUP3 ADD SWAP1 POP PUSH2 0x9AE PUSH0 DUP4 ADD DUP5 PUSH2 0x948 JUMP JUMPDEST SWAP3 SWAP2 POP POP JUMP JUMPDEST PUSH32 0x666F7272626974656E0000000000000000000000000000000000000000000000 PUSH0 DUP3 ADD MSTORE POP JUMP JUMPDEST PUSH0 PUSH2 0x9E8 PUSH1 0x9 DUP4 PUSH2 0x7C5 JUMP JUMPDEST SWAP2 POP PUSH2 0x9F3 DUP3 PUSH2 0x9B4 JUMP JUMPDEST PUSH1 0x20 DUP3 ADD SWAP1 POP SWAP2 SWAP1 POP JUMP JUMPDEST PUSH0 PUSH1 0x20 DUP3 ADD SWAP1 POP DUP2 DUP2 SUB PUSH0 DUP4 ADD MSTORE PUSH2 0xA15 DUP2 PUSH2 0x9DC JUMP JUMPDEST SWAP1 POP SWAP2 SWAP1 POP JUMP JUMPDEST PUSH32 0x4E6F7420656E6F756768206D6F6E657900000000000000000000000000000000 PUSH0 DUP3 ADD MSTORE POP JUMP JUMPDEST PUSH0 PUSH2 0xA50 PUSH1 0x10 DUP4 PUSH2 0x7C5 JUMP JUMPDEST SWAP2 POP PUSH2 0xA5B DUP3 PUSH2 0xA1C JUMP JUMPDEST PUSH1 0x20 DUP3 ADD SWAP1 POP SWAP2 SWAP1 POP JUMP JUMPDEST PUSH0 PUSH1 0x20 DUP3 ADD SWAP1 POP DUP2 DUP2 SUB PUSH0 DUP4 ADD MSTORE PUSH2 0xA7D DUP2 PUSH2 0xA44 JUMP JUMPDEST SWAP1 POP SWAP2 SWAP1 POP JUMP JUMPDEST PUSH32 0x4E6F74206F776E65720000000000000000000000000000000000000000000000 PUSH0 DUP3 ADD MSTORE POP JUMP JUMPDEST PUSH0 PUSH2 0xAB8 PUSH1 0x9 DUP4 PUSH2 0x7C5 JUMP JUMPDEST SWAP2 POP PUSH2 0xAC3 DUP3 PUSH2 0xA84 JUMP JUMPDEST PUSH1 0x20 DUP3 ADD SWAP1 POP SWAP2 SWAP1 POP JUMP JUMPDEST PUSH0 PUSH1 0x20 DUP3 ADD SWAP1 POP DUP2 DUP2 SUB PUSH0 DUP4 ADD MSTORE PUSH2 0xAE5 DUP2 PUSH2 0xAAC JUMP JUMPDEST SWAP1 POP SWAP2 SWAP1 POP JUMP JUMPDEST PUSH32 0x73656E74206D616E790000000000000000000000000000000000000000000000 PUSH0 DUP3 ADD MSTORE POP JUMP JUMPDEST PUSH0 PUSH2 0xB20 PUSH1 0x9 DUP4 PUSH2 0x7C5 JUMP JUMPDEST SWAP2 POP PUSH2 0xB2B DUP3 PUSH2 0xAEC JUMP JUMPDEST PUSH1 0x20 DUP3 ADD SWAP1 POP SWAP2 SWAP1 POP JUMP JUMPDEST PUSH2 0xB3F DUP2 PUSH2 0x75D JUMP JUMPDEST DUP3 MSTORE POP POP JUMP JUMPDEST PUSH0 PUSH1 0x60 DUP3 ADD SWAP1 POP PUSH2 0xB58 PUSH0 DUP4 ADD DUP6 PUSH2 0x86E JUMP JUMPDEST DUP2 DUP2 SUB PUSH1 0x20 DUP4 ADD MSTORE PUSH2 0xB69 DUP2 PUSH2 0xB14 JUMP JUMPDEST SWAP1 POP PUSH2 0xB78 PUSH1 0x40 DUP4 ADD DUP5 PUSH2 0xB36 JUMP JUMPDEST SWAP4 SWAP3 POP POP POP JUMP JUMPDEST PUSH2 0xB88 DUP2 PUSH2 0x919 JUMP JUMPDEST DUP3 MSTORE POP POP JUMP JUMPDEST PUSH0 PUSH1 0x80 DUP3 ADD SWAP1 POP PUSH2 0xBA1 PUSH0 DUP4 ADD DUP8 PUSH2 0xB36 JUMP JUMPDEST PUSH2 0xBAE PUSH1 0x20 DUP4 ADD DUP7 PUSH2 0xB7F JUMP JUMPDEST PUSH2 0xBBB PUSH1 0x40 DUP4 ADD DUP6 PUSH2 0x86E JUMP JUMPDEST PUSH2 0xBC8 PUSH1 0x60 DUP4 ADD DUP5 PUSH2 0xB36 JUMP JUMPDEST SWAP6 SWAP5 POP POP POP POP POP JUMP INVALID LOG2 PUSH5 0x6970667358 0x22 SLT KECCAK256 SWAP16 CALLVALUE NUMBER PUSH4 0xD79EDCF3 0x28 0xC8 SELFDESTRUCT PUSH21 0x75CF7259F3F93590D5F35E6087B3EEAD117D685E64 PUSH20 0x6F6C634300081600330000000000000000000000 "
				},
				"gasEstimates": {
					"creation": {
						"codeDepositCost": "615800",
						"executionCost": "24914",
						"totalCost": "640714"
					},
					"external": {
						"backMoney(int256)": "infinite",
						"balanceOf()": "356",
						"pay(int256)": "infinite",
						"send_all()": "infinite",
						"to_send(uint256)": "infinite",
						"transaction(int256)": "infinite"
					}
				},
				"methodIdentifiers": {
					"backMoney(int256)": "07cb2d75",
					"balanceOf()": "722713f7",
					"pay(int256)": "e1457faf",
					"send_all()": "2193cdba",
					"to_send(uint256)": "c5fc77bf",
					"transaction(int256)": "d6c9cf90"
				}
			},
			"storageLayout": {
				"storage": [
					{
						"astId": 3,
						"contract": "contracts/Shop.sol:Shop",
						"label": "owner",
						"offset": 0,
						"slot": "0",
						"type": "t_address_payable"
					},
					{
						"astId": 17,
						"contract": "contracts/Shop.sol:Shop",
						"label": "Payments",
						"offset": 0,
						"slot": "1",
						"type": "t_mapping(t_int256,t_struct(Payment)12_storage)"
					}
				],
				"types": {
					"t_address": {
						"encoding": "inplace",
						"label": "address",
						"numberOfBytes": "20"
					},
					"t_address_payable": {
						"encoding": "inplace",
						"label": "address payable",
						"numberOfBytes": "20"
					},
					"t_int256": {
						"encoding": "inplace",
						"label": "int256",
						"numberOfBytes": "32"
					},
					"t_mapping(t_int256,t_struct(Payment)12_storage)": {
						"encoding": "mapping",
						"key": "t_int256",
						"label": "mapping(int256 => struct Shop.Payment)",
						"numberOfBytes": "32",
						"value": "t_struct(Payment)12_storage"
					},
					"t_struct(Payment)12_storage": {
						"encoding": "inplace",
						"label": "struct Shop.Payment",
						"members": [
							{
								"astId": 5,
								"contract": "contracts/Shop.sol:Shop",
								"label": "id",
								"offset": 0,
								"slot": "0",
								"type": "t_int256"
							},
							{
								"astId": 7,
								"contract": "contracts/Shop.sol:Shop",
								"label": "from",
								"offset": 0,
								"slot": "1",
								"type": "t_address"
							},
							{
								"astId": 9,
								"contract": "contracts/Shop.sol:Shop",
								"label": "total",
								"offset": 0,
								"slot": "2",
								"type": "t_uint256"
							},
							{
								"astId": 11,
								"contract": "contracts/Shop.sol:Shop",
								"label": "time",
								"offset": 0,
								"slot": "3",
								"type": "t_int256"
							}
						],
						"numberOfBytes": "128"
					},
					"t_uint256": {
						"encoding": "inplace",
						"label": "uint256",
						"numberOfBytes": "32"
					}
				}
			},
			"userdoc": {
				"kind": "user",
				"methods": {},
				"version": 1
			}
		}
	}
}